{
  "_format": "hh-sol-artifact-1",
  "contractName": "CrvVePair",
  "sourceName": "contracts/Swap.sol",
  "abi": [
    {
      "inputs": [
        {
          "internalType": "address",
          "name": "_crvToken",
          "type": "address"
        },
        {
          "internalType": "address",
          "name": "_veToken",
          "type": "address"
        }
      ],
      "stateMutability": "nonpayable",
      "type": "constructor"
    },
    {
      "anonymous": false,
      "inputs": [
        {
          "indexed": true,
          "internalType": "address",
          "name": "provider",
          "type": "address"
        },
        {
          "indexed": false,
          "internalType": "uint256",
          "name": "amountCrv",
          "type": "uint256"
        },
        {
          "indexed": false,
          "internalType": "uint256",
          "name": "amountVe",
          "type": "uint256"
        },
        {
          "indexed": false,
          "internalType": "uint256",
          "name": "liquidity",
          "type": "uint256"
        }
      ],
      "name": "AddLiquidity",
      "type": "event"
    },
    {
      "anonymous": false,
      "inputs": [
        {
          "indexed": true,
          "internalType": "address",
          "name": "owner",
          "type": "address"
        },
        {
          "indexed": true,
          "internalType": "address",
          "name": "spender",
          "type": "address"
        },
        {
          "indexed": false,
          "internalType": "uint256",
          "name": "value",
          "type": "uint256"
        }
      ],
      "name": "Approval",
      "type": "event"
    },
    {
      "anonymous": false,
      "inputs": [
        {
          "indexed": true,
          "internalType": "address",
          "name": "provider",
          "type": "address"
        },
        {
          "indexed": false,
          "internalType": "uint256",
          "name": "amountCrv",
          "type": "uint256"
        },
        {
          "indexed": false,
          "internalType": "uint256",
          "name": "amountVe",
          "type": "uint256"
        },
        {
          "indexed": false,
          "internalType": "uint256",
          "name": "liquidity",
          "type": "uint256"
        }
      ],
      "name": "RemoveLiquidity",
      "type": "event"
    },
    {
      "anonymous": false,
      "inputs": [
        {
          "indexed": true,
          "internalType": "address",
          "name": "user",
          "type": "address"
        },
        {
          "indexed": false,
          "internalType": "uint256",
          "name": "amountIn",
          "type": "uint256"
        },
        {
          "indexed": false,
          "internalType": "uint256",
          "name": "amountOut",
          "type": "uint256"
        }
      ],
      "name": "Swap",
      "type": "event"
    },
    {
      "anonymous": false,
      "inputs": [
        {
          "indexed": false,
          "internalType": "uint256",
          "name": "reserve0",
          "type": "uint256"
        },
        {
          "indexed": false,
          "internalType": "uint256",
          "name": "reserve1",
          "type": "uint256"
        }
      ],
      "name": "Sync",
      "type": "event"
    },
    {
      "anonymous": false,
      "inputs": [
        {
          "indexed": true,
          "internalType": "address",
          "name": "from",
          "type": "address"
        },
        {
          "indexed": true,
          "internalType": "address",
          "name": "to",
          "type": "address"
        },
        {
          "indexed": false,
          "internalType": "uint256",
          "name": "value",
          "type": "uint256"
        }
      ],
      "name": "Transfer",
      "type": "event"
    },
    {
      "inputs": [
        {
          "internalType": "uint256",
          "name": "amountCrv",
          "type": "uint256"
        },
        {
          "internalType": "uint256",
          "name": "amountVe",
          "type": "uint256"
        }
      ],
      "name": "addLiquidity",
      "outputs": [],
      "stateMutability": "nonpayable",
      "type": "function"
    },
    {
      "inputs": [
        {
          "internalType": "address",
          "name": "",
          "type": "address"
        },
        {
          "internalType": "address",
          "name": "",
          "type": "address"
        }
      ],
      "name": "allowance",
      "outputs": [
        {
          "internalType": "uint256",
          "name": "",
          "type": "uint256"
        }
      ],
      "stateMutability": "view",
      "type": "function"
    },
    {
      "inputs": [
        {
          "internalType": "address",
          "name": "spender",
          "type": "address"
        },
        {
          "internalType": "uint256",
          "name": "amount",
          "type": "uint256"
        }
      ],
      "name": "approve",
      "outputs": [
        {
          "internalType": "bool",
          "name": "",
          "type": "bool"
        }
      ],
      "stateMutability": "nonpayable",
      "type": "function"
    },
    {
      "inputs": [
        {
          "internalType": "address",
          "name": "",
          "type": "address"
        }
      ],
      "name": "balanceOf",
      "outputs": [
        {
          "internalType": "uint256",
          "name": "",
          "type": "uint256"
        }
      ],
      "stateMutability": "view",
      "type": "function"
    },
    {
      "inputs": [],
      "name": "crvToken",
      "outputs": [
        {
          "internalType": "contract IERC20",
          "name": "",
          "type": "address"
        }
      ],
      "stateMutability": "view",
      "type": "function"
    },
    {
      "inputs": [],
      "name": "getReserves",
      "outputs": [
        {
          "internalType": "uint256",
          "name": "_reserve0",
          "type": "uint256"
        },
        {
          "internalType": "uint256",
          "name": "_reserve1",
          "type": "uint256"
        },
        {
          "internalType": "uint32",
          "name": "_blockTimestampLast",
          "type": "uint32"
        }
      ],
      "stateMutability": "view",
      "type": "function"
    },
    {
      "inputs": [],
      "name": "kLast",
      "outputs": [
        {
          "internalType": "uint256",
          "name": "",
          "type": "uint256"
        }
      ],
      "stateMutability": "view",
      "type": "function"
    },
    {
      "inputs": [],
      "name": "price0CumulativeLast",
      "outputs": [
        {
          "internalType": "uint256",
          "name": "",
          "type": "uint256"
        }
      ],
      "stateMutability": "view",
      "type": "function"
    },
    {
      "inputs": [],
      "name": "price1CumulativeLast",
      "outputs": [
        {
          "internalType": "uint256",
          "name": "",
          "type": "uint256"
        }
      ],
      "stateMutability": "view",
      "type": "function"
    },
    {
      "inputs": [
        {
          "internalType": "uint256",
          "name": "liquidity",
          "type": "uint256"
        }
      ],
      "name": "removeLiquidity",
      "outputs": [],
      "stateMutability": "nonpayable",
      "type": "function"
    },
    {
      "inputs": [
        {
          "internalType": "uint256",
          "name": "VeAmount",
          "type": "uint256"
        },
        {
          "internalType": "address",
          "name": "to",
          "type": "address"
        }
      ],
      "name": "swapCRVToken",
      "outputs": [],
      "stateMutability": "nonpayable",
      "type": "function"
    },
    {
      "inputs": [
        {
          "internalType": "uint256",
          "name": "CrvAmount",
          "type": "uint256"
        },
        {
          "internalType": "address",
          "name": "to",
          "type": "address"
        }
      ],
      "name": "swapVEToken",
      "outputs": [],
      "stateMutability": "nonpayable",
      "type": "function"
    },
    {
      "inputs": [],
      "name": "sync",
      "outputs": [],
      "stateMutability": "nonpayable",
      "type": "function"
    },
    {
      "inputs": [],
      "name": "totalSupply",
      "outputs": [
        {
          "internalType": "uint256",
          "name": "",
          "type": "uint256"
        }
      ],
      "stateMutability": "view",
      "type": "function"
    },
    {
      "inputs": [
        {
          "internalType": "address",
          "name": "to",
          "type": "address"
        },
        {
          "internalType": "uint256",
          "name": "amount",
          "type": "uint256"
        }
      ],
      "name": "transfer",
      "outputs": [
        {
          "internalType": "bool",
          "name": "",
          "type": "bool"
        }
      ],
      "stateMutability": "nonpayable",
      "type": "function"
    },
    {
      "inputs": [
        {
          "internalType": "address",
          "name": "from",
          "type": "address"
        },
        {
          "internalType": "address",
          "name": "to",
          "type": "address"
        },
        {
          "internalType": "uint256",
          "name": "amount",
          "type": "uint256"
        }
      ],
      "name": "transferFrom",
      "outputs": [
        {
          "internalType": "bool",
          "name": "",
          "type": "bool"
        }
      ],
      "stateMutability": "nonpayable",
      "type": "function"
    },
    {
      "inputs": [],
      "name": "veToken",
      "outputs": [
        {
          "internalType": "contract IERC20",
          "name": "",
          "type": "address"
        }
      ],
      "stateMutability": "view",
      "type": "function"
    }
  ],
  "bytecode": "0x60806040523480156200001157600080fd5b506040516200242c3803806200242c83398181016040528101906200003791906200012a565b816000806101000a81548173ffffffffffffffffffffffffffffffffffffffff021916908373ffffffffffffffffffffffffffffffffffffffff16021790555080600160006101000a81548173ffffffffffffffffffffffffffffffffffffffff021916908373ffffffffffffffffffffffffffffffffffffffff160217905550505062000171565b600080fd5b600073ffffffffffffffffffffffffffffffffffffffff82169050919050565b6000620000f282620000c5565b9050919050565b6200010481620000e5565b81146200011057600080fd5b50565b6000815190506200012481620000f9565b92915050565b60008060408385031215620001445762000143620000c0565b5b6000620001548582860162000113565b9250506020620001678582860162000113565b9150509250929050565b6122ab80620001816000396000f3fe608060405234801561001057600080fd5b506004361061010b5760003560e01c80635a3d5493116100a25780639cd441da116100715780639cd441da146102ac578063a9059cbb146102c8578063af0dc2ed146102f8578063dd62ed3e14610314578063fff6cae9146103445761010b565b80635a3d54931461022457806370a08231146102425780637464fc3d146102725780639c8f9f23146102905761010b565b806332d7d66d116100de57806332d7d66d146101ae5780633b92eb23146101cc5780633d20f629146101ea5780635909c0d5146102065761010b565b80630902f1ac14610110578063095ea7b31461013057806318160ddd1461016057806323b872dd1461017e575b600080fd5b61011861034e565b604051610127939291906119a9565b60405180910390f35b61014a60048036038101906101459190611a6f565b610377565b6040516101579190611aca565b60405180910390f35b610168610469565b6040516101759190611ae5565b60405180910390f35b61019860048036038101906101939190611b00565b61046f565b6040516101a59190611aca565b60405180910390f35b6101b66105d7565b6040516101c39190611bb2565b60405180910390f35b6101d46105fb565b6040516101e19190611bb2565b60405180910390f35b61020460048036038101906101ff9190611bcd565b610621565b005b61020e61093e565b60405161021b9190611ae5565b60405180910390f35b61022c610944565b6040516102399190611ae5565b60405180910390f35b61025c60048036038101906102579190611c0d565b61094a565b6040516102699190611ae5565b60405180910390f35b61027a610962565b6040516102879190611ae5565b60405180910390f35b6102aa60048036038101906102a59190611c3a565b610968565b005b6102c660048036038101906102c19190611c67565b610eee565b005b6102e260048036038101906102dd9190611a6f565b61125e565b6040516102ef9190611aca565b60405180910390f35b610312600480360381019061030d9190611bcd565b611275565b005b61032e60048036038101906103299190611ca7565b611592565b60405161033b9190611ae5565b60405180910390f35b61034c6115b7565b005b600080600060055492506006549150600760009054906101000a900463ffffffff169050909192565b600081600460003373ffffffffffffffffffffffffffffffffffffffff1673ffffffffffffffffffffffffffffffffffffffff16815260200190815260200160002060008573ffffffffffffffffffffffffffffffffffffffff1673ffffffffffffffffffffffffffffffffffffffff168152602001908152602001600020819055508273ffffffffffffffffffffffffffffffffffffffff163373ffffffffffffffffffffffffffffffffffffffff167f8c5be1e5ebec7d5bd14f71427d1e84f3dd0314c0f7b2291e5b200ac8c7c3b925846040516104579190611ae5565b60405180910390a36001905092915050565b60025481565b600080600460008673ffffffffffffffffffffffffffffffffffffffff1673ffffffffffffffffffffffffffffffffffffffff16815260200190815260200160002060003373ffffffffffffffffffffffffffffffffffffffff1673ffffffffffffffffffffffffffffffffffffffff16815260200190815260200160002054905082811015610534576040517f08c379a000000000000000000000000000000000000000000000000000000000815260040161052b90611d6a565b60405180910390fd5b82816105409190611db9565b600460008773ffffffffffffffffffffffffffffffffffffffff1673ffffffffffffffffffffffffffffffffffffffff16815260200190815260200160002060003373ffffffffffffffffffffffffffffffffffffffff1673ffffffffffffffffffffffffffffffffffffffff168152602001908152602001600020819055506105cb8585856116f7565b60019150509392505050565b60008054906101000a900473ffffffffffffffffffffffffffffffffffffffff1681565b600160009054906101000a900473ffffffffffffffffffffffffffffffffffffffff1681565b60008061062c61034e565b50915091506000841180156106415750818411155b61064a57600080fd5b60008054906101000a900473ffffffffffffffffffffffffffffffffffffffff1673ffffffffffffffffffffffffffffffffffffffff166323b872dd3330876040518463ffffffff1660e01b81526004016106a793929190611dfc565b6020604051808303816000875af11580156106c6573d6000803e3d6000fd5b505050506040513d601f19601f820116820180604052508101906106ea9190611e5f565b506000849050818111156106fd57600080fd5b600160009054906101000a900473ffffffffffffffffffffffffffffffffffffffff1673ffffffffffffffffffffffffffffffffffffffff1663a9059cbb85836040518363ffffffff1660e01b815260040161075a929190611e8c565b6020604051808303816000875af1158015610779573d6000803e3d6000fd5b505050506040513d601f19601f8201168201806040525081019061079d9190611e5f565b5060008060008054906101000a900473ffffffffffffffffffffffffffffffffffffffff1673ffffffffffffffffffffffffffffffffffffffff166370a08231306040518263ffffffff1660e01b81526004016107fa9190611eb5565b602060405180830381865afa158015610817573d6000803e3d6000fd5b505050506040513d601f19601f8201168201806040525081019061083b9190611ee5565b9150600160009054906101000a900473ffffffffffffffffffffffffffffffffffffffff1673ffffffffffffffffffffffffffffffffffffffff166370a08231306040518263ffffffff1660e01b81526004016108989190611eb5565b602060405180830381865afa1580156108b5573d6000803e3d6000fd5b505050506040513d601f19601f820116820180604052508101906108d99190611ee5565b90506108e582826118eb565b3373ffffffffffffffffffffffffffffffffffffffff167f77f92a1b6a1a11de8ca49515ad4c1fad45632dd3442167d74b90b304a3c7a758888560405161092d929190611f12565b60405180910390a250505050505050565b60085481565b60095481565b60036020528060005260406000206000915090505481565b600a5481565b60008061097361034e565b509150915060008311801561098a57508260025410155b6109c9576040517f08c379a00000000000000000000000000000000000000000000000000000000081526004016109c090611f87565b60405180910390fd5b600060025460008054906101000a900473ffffffffffffffffffffffffffffffffffffffff1673ffffffffffffffffffffffffffffffffffffffff166370a08231306040518263ffffffff1660e01b8152600401610a279190611eb5565b602060405180830381865afa158015610a44573d6000803e3d6000fd5b505050506040513d601f19601f82011682018060405250810190610a689190611ee5565b85610a739190611fa7565b610a7d9190612018565b90506000600254600160009054906101000a900473ffffffffffffffffffffffffffffffffffffffff1673ffffffffffffffffffffffffffffffffffffffff166370a08231306040518263ffffffff1660e01b8152600401610adf9190611eb5565b602060405180830381865afa158015610afc573d6000803e3d6000fd5b505050506040513d601f19601f82011682018060405250810190610b209190611ee5565b86610b2b9190611fa7565b610b359190612018565b9050600082118015610b475750600081115b610b86576040517f08c379a0000000000000000000000000000000000000000000000000000000008152600401610b7d90612095565b60405180910390fd5b8382108015610b9457508281105b610b9d57600080fd5b8460026000828254610baf9190611db9565b9250508190555084600360003373ffffffffffffffffffffffffffffffffffffffff1673ffffffffffffffffffffffffffffffffffffffff1681526020019081526020016000206000828254610c059190611db9565b9250508190555060008054906101000a900473ffffffffffffffffffffffffffffffffffffffff1673ffffffffffffffffffffffffffffffffffffffff1663a9059cbb33846040518363ffffffff1660e01b8152600401610c67929190611e8c565b6020604051808303816000875af1158015610c86573d6000803e3d6000fd5b505050506040513d601f19601f82011682018060405250810190610caa9190611e5f565b50600160009054906101000a900473ffffffffffffffffffffffffffffffffffffffff1673ffffffffffffffffffffffffffffffffffffffff1663a9059cbb33836040518363ffffffff1660e01b8152600401610d08929190611e8c565b6020604051808303816000875af1158015610d27573d6000803e3d6000fd5b505050506040513d601f19601f82011682018060405250810190610d4b9190611e5f565b5060008060008054906101000a900473ffffffffffffffffffffffffffffffffffffffff1673ffffffffffffffffffffffffffffffffffffffff166370a08231306040518263ffffffff1660e01b8152600401610da89190611eb5565b602060405180830381865afa158015610dc5573d6000803e3d6000fd5b505050506040513d601f19601f82011682018060405250810190610de99190611ee5565b9150600160009054906101000a900473ffffffffffffffffffffffffffffffffffffffff1673ffffffffffffffffffffffffffffffffffffffff166370a08231306040518263ffffffff1660e01b8152600401610e469190611eb5565b602060405180830381865afa158015610e63573d6000803e3d6000fd5b505050506040513d601f19601f82011682018060405250810190610e879190611ee5565b9050610e9382826118eb565b3373ffffffffffffffffffffffffffffffffffffffff167f59c3a0b60c6ab7deb62e1440c9e72441db6db7dfe514dba8cb18e60c0d896efa85858a604051610edd939291906120b5565b60405180910390a250505050505050565b60008054906101000a900473ffffffffffffffffffffffffffffffffffffffff1673ffffffffffffffffffffffffffffffffffffffff166323b872dd3330856040518463ffffffff1660e01b8152600401610f4b93929190611dfc565b6020604051808303816000875af1158015610f6a573d6000803e3d6000fd5b505050506040513d601f19601f82011682018060405250810190610f8e9190611e5f565b50600160009054906101000a900473ffffffffffffffffffffffffffffffffffffffff1673ffffffffffffffffffffffffffffffffffffffff166323b872dd3330846040518463ffffffff1660e01b8152600401610fee93929190611dfc565b6020604051808303816000875af115801561100d573d6000803e3d6000fd5b505050506040513d601f19601f820116820180604052508101906110319190611e5f565b50600060025482846110439190611fa7565b61104d9190612018565b9050806002600082825461106191906120ec565b9250508190555080600360003373ffffffffffffffffffffffffffffffffffffffff1673ffffffffffffffffffffffffffffffffffffffff16815260200190815260200160002060008282546110b791906120ec565b9250508190555060008060008054906101000a900473ffffffffffffffffffffffffffffffffffffffff1673ffffffffffffffffffffffffffffffffffffffff166370a08231306040518263ffffffff1660e01b815260040161111a9190611eb5565b602060405180830381865afa158015611137573d6000803e3d6000fd5b505050506040513d601f19601f8201168201806040525081019061115b9190611ee5565b9150600160009054906101000a900473ffffffffffffffffffffffffffffffffffffffff1673ffffffffffffffffffffffffffffffffffffffff166370a08231306040518263ffffffff1660e01b81526004016111b89190611eb5565b602060405180830381865afa1580156111d5573d6000803e3d6000fd5b505050506040513d601f19601f820116820180604052508101906111f99190611ee5565b905061120582826118eb565b3373ffffffffffffffffffffffffffffffffffffffff167fbeb3885786d637a474cbc287c0a44587231633a077f0bd30354d5a4b18996fce86868660405161124f939291906120b5565b60405180910390a25050505050565b600061126b3384846116f7565b6001905092915050565b60008061128061034e565b50915091506000841180156112955750808411155b61129e57600080fd5b600160009054906101000a900473ffffffffffffffffffffffffffffffffffffffff1673ffffffffffffffffffffffffffffffffffffffff166323b872dd3330876040518463ffffffff1660e01b81526004016112fd93929190611dfc565b6020604051808303816000875af115801561131c573d6000803e3d6000fd5b505050506040513d601f19601f820116820180604052508101906113409190611e5f565b5060008490508281111561135357600080fd5b60008054906101000a900473ffffffffffffffffffffffffffffffffffffffff1673ffffffffffffffffffffffffffffffffffffffff1663a9059cbb85876040518363ffffffff1660e01b81526004016113ae929190611e8c565b6020604051808303816000875af11580156113cd573d6000803e3d6000fd5b505050506040513d601f19601f820116820180604052508101906113f19190611e5f565b5060008060008054906101000a900473ffffffffffffffffffffffffffffffffffffffff1673ffffffffffffffffffffffffffffffffffffffff166370a08231306040518263ffffffff1660e01b815260040161144e9190611eb5565b602060405180830381865afa15801561146b573d6000803e3d6000fd5b505050506040513d601f19601f8201168201806040525081019061148f9190611ee5565b9150600160009054906101000a900473ffffffffffffffffffffffffffffffffffffffff1673ffffffffffffffffffffffffffffffffffffffff166370a08231306040518263ffffffff1660e01b81526004016114ec9190611eb5565b602060405180830381865afa158015611509573d6000803e3d6000fd5b505050506040513d601f19601f8201168201806040525081019061152d9190611ee5565b905061153982826118eb565b3373ffffffffffffffffffffffffffffffffffffffff167f77f92a1b6a1a11de8ca49515ad4c1fad45632dd3442167d74b90b304a3c7a7588489604051611581929190611f12565b60405180910390a250505050505050565b6004602052816000526040600020602052806000526040600020600091509150505481565b6116f560008054906101000a900473ffffffffffffffffffffffffffffffffffffffff1673ffffffffffffffffffffffffffffffffffffffff166370a08231306040518263ffffffff1660e01b81526004016116139190611eb5565b602060405180830381865afa158015611630573d6000803e3d6000fd5b505050506040513d601f19601f820116820180604052508101906116549190611ee5565b600160009054906101000a900473ffffffffffffffffffffffffffffffffffffffff1673ffffffffffffffffffffffffffffffffffffffff166370a08231306040518263ffffffff1660e01b81526004016116af9190611eb5565b602060405180830381865afa1580156116cc573d6000803e3d6000fd5b505050506040513d601f19601f820116820180604052508101906116f09190611ee5565b6118eb565b565b600073ffffffffffffffffffffffffffffffffffffffff168373ffffffffffffffffffffffffffffffffffffffff1603611766576040517f08c379a000000000000000000000000000000000000000000000000000000000815260040161175d90612192565b60405180910390fd5b600073ffffffffffffffffffffffffffffffffffffffff168273ffffffffffffffffffffffffffffffffffffffff16036117d5576040517f08c379a00000000000000000000000000000000000000000000000000000000081526004016117cc90612224565b60405180910390fd5b80600360008573ffffffffffffffffffffffffffffffffffffffff1673ffffffffffffffffffffffffffffffffffffffff16815260200190815260200160002060008282546118249190611db9565b9250508190555080600360008473ffffffffffffffffffffffffffffffffffffffff1673ffffffffffffffffffffffffffffffffffffffff168152602001908152602001600020600082825461187a91906120ec565b925050819055508173ffffffffffffffffffffffffffffffffffffffff168373ffffffffffffffffffffffffffffffffffffffff167fddf252ad1be2c89b69c2b068fc378daa952ba7f163c4a11628f55a4df523b3ef836040516118de9190611ae5565b60405180910390a3505050565b6000640100000000426118fe9190612244565b9050826005819055508160068190555080600760006101000a81548163ffffffff021916908363ffffffff1602179055507fcf2aa50876cdfbb541206f89af0ee78d44a2abf8d328e37fa4917f982149848a600554600654604051611964929190611f12565b60405180910390a1505050565b6000819050919050565b61198481611971565b82525050565b600063ffffffff82169050919050565b6119a38161198a565b82525050565b60006060820190506119be600083018661197b565b6119cb602083018561197b565b6119d8604083018461199a565b949350505050565b600080fd5b600073ffffffffffffffffffffffffffffffffffffffff82169050919050565b6000611a10826119e5565b9050919050565b611a2081611a05565b8114611a2b57600080fd5b50565b600081359050611a3d81611a17565b92915050565b611a4c81611971565b8114611a5757600080fd5b50565b600081359050611a6981611a43565b92915050565b60008060408385031215611a8657611a856119e0565b5b6000611a9485828601611a2e565b9250506020611aa585828601611a5a565b9150509250929050565b60008115159050919050565b611ac481611aaf565b82525050565b6000602082019050611adf6000830184611abb565b92915050565b6000602082019050611afa600083018461197b565b92915050565b600080600060608486031215611b1957611b186119e0565b5b6000611b2786828701611a2e565b9350506020611b3886828701611a2e565b9250506040611b4986828701611a5a565b9150509250925092565b6000819050919050565b6000611b78611b73611b6e846119e5565b611b53565b6119e5565b9050919050565b6000611b8a82611b5d565b9050919050565b6000611b9c82611b7f565b9050919050565b611bac81611b91565b82525050565b6000602082019050611bc76000830184611ba3565b92915050565b60008060408385031215611be457611be36119e0565b5b6000611bf285828601611a5a565b9250506020611c0385828601611a2e565b9150509250929050565b600060208284031215611c2357611c226119e0565b5b6000611c3184828501611a2e565b91505092915050565b600060208284031215611c5057611c4f6119e0565b5b6000611c5e84828501611a5a565b91505092915050565b60008060408385031215611c7e57611c7d6119e0565b5b6000611c8c85828601611a5a565b9250506020611c9d85828601611a5a565b9150509250929050565b60008060408385031215611cbe57611cbd6119e0565b5b6000611ccc85828601611a2e565b9250506020611cdd85828601611a2e565b9150509250929050565b600082825260208201905092915050565b7f45524332303a207472616e7366657220616d6f756e742065786365656473206160008201527f6c6c6f77616e6365000000000000000000000000000000000000000000000000602082015250565b6000611d54602883611ce7565b9150611d5f82611cf8565b604082019050919050565b60006020820190508181036000830152611d8381611d47565b9050919050565b7f4e487b7100000000000000000000000000000000000000000000000000000000600052601160045260246000fd5b6000611dc482611971565b9150611dcf83611971565b9250828203905081811115611de757611de6611d8a565b5b92915050565b611df681611a05565b82525050565b6000606082019050611e116000830186611ded565b611e1e6020830185611ded565b611e2b604083018461197b565b949350505050565b611e3c81611aaf565b8114611e4757600080fd5b50565b600081519050611e5981611e33565b92915050565b600060208284031215611e7557611e746119e0565b5b6000611e8384828501611e4a565b91505092915050565b6000604082019050611ea16000830185611ded565b611eae602083018461197b565b9392505050565b6000602082019050611eca6000830184611ded565b92915050565b600081519050611edf81611a43565b92915050565b600060208284031215611efb57611efa6119e0565b5b6000611f0984828501611ed0565b91505092915050565b6000604082019050611f27600083018561197b565b611f34602083018461197b565b9392505050565b7f496e76616c6964206c6971756964697479000000000000000000000000000000600082015250565b6000611f71601183611ce7565b9150611f7c82611f3b565b602082019050919050565b60006020820190508181036000830152611fa081611f64565b9050919050565b6000611fb282611971565b9150611fbd83611971565b9250828202611fcb81611971565b91508282048414831517611fe257611fe1611d8a565b5b5092915050565b7f4e487b7100000000000000000000000000000000000000000000000000000000600052601260045260246000fd5b600061202382611971565b915061202e83611971565b92508261203e5761203d611fe9565b5b828204905092915050565b7f496e73756666696369656e74206c697175696469747900000000000000000000600082015250565b600061207f601683611ce7565b915061208a82612049565b602082019050919050565b600060208201905081810360008301526120ae81612072565b9050919050565b60006060820190506120ca600083018661197b565b6120d7602083018561197b565b6120e4604083018461197b565b949350505050565b60006120f782611971565b915061210283611971565b925082820190508082111561211a57612119611d8a565b5b92915050565b7f45524332303a207472616e736665722066726f6d20746865207a65726f20616460008201527f6472657373000000000000000000000000000000000000000000000000000000602082015250565b600061217c602583611ce7565b915061218782612120565b604082019050919050565b600060208201905081810360008301526121ab8161216f565b9050919050565b7f45524332303a207472616e7366657220746f20746865207a65726f206164647260008201527f6573730000000000000000000000000000000000000000000000000000000000602082015250565b600061220e602383611ce7565b9150612219826121b2565b604082019050919050565b6000602082019050818103600083015261223d81612201565b9050919050565b600061224f82611971565b915061225a83611971565b92508261226a57612269611fe9565b5b82820690509291505056fea2646970667358221220fad3c290f8e8f4c355372c363c72e1b8f7e60f730c5a94bcba711e0965cc9b9e64736f6c63430008180033",
  "linkReferences": {},
  "deployedLinkReferences": {}
}