{
  "_format": "hh-sol-artifact-1",
  "contractName": "CrvVePair",
  "sourceName": "contracts/Swap.sol",
  "abi": [
    {
      "inputs": [
        {
          "internalType": "address",
          "name": "_crvToken",
          "type": "address"
        },
        {
          "internalType": "address",
          "name": "_veToken",
          "type": "address"
        }
      ],
      "stateMutability": "nonpayable",
      "type": "constructor"
    },
    {
      "anonymous": false,
      "inputs": [
        {
          "indexed": true,
          "internalType": "address",
          "name": "provider",
          "type": "address"
        },
        {
          "indexed": false,
          "internalType": "uint256",
          "name": "amountCrv",
          "type": "uint256"
        },
        {
          "indexed": false,
          "internalType": "uint256",
          "name": "amountVe",
          "type": "uint256"
        },
        {
          "indexed": false,
          "internalType": "uint256",
          "name": "liquidity",
          "type": "uint256"
        }
      ],
      "name": "AddLiquidity",
      "type": "event"
    },
    {
      "anonymous": false,
      "inputs": [
        {
          "indexed": true,
          "internalType": "address",
          "name": "account",
          "type": "address"
        }
      ],
      "name": "AddToWhitelist",
      "type": "event"
    },
    {
      "anonymous": false,
      "inputs": [
        {
          "indexed": true,
          "internalType": "address",
          "name": "owner",
          "type": "address"
        },
        {
          "indexed": true,
          "internalType": "address",
          "name": "spender",
          "type": "address"
        },
        {
          "indexed": false,
          "internalType": "uint256",
          "name": "value",
          "type": "uint256"
        }
      ],
      "name": "Approval",
      "type": "event"
    },
    {
      "anonymous": false,
      "inputs": [
        {
          "indexed": true,
          "internalType": "address",
          "name": "provider",
          "type": "address"
        },
        {
          "indexed": false,
          "internalType": "uint256",
          "name": "amountCrv",
          "type": "uint256"
        },
        {
          "indexed": false,
          "internalType": "uint256",
          "name": "amountVe",
          "type": "uint256"
        },
        {
          "indexed": false,
          "internalType": "uint256",
          "name": "liquidity",
          "type": "uint256"
        }
      ],
      "name": "RemoveLiquidity",
      "type": "event"
    },
    {
      "anonymous": false,
      "inputs": [
        {
          "indexed": true,
          "internalType": "address",
          "name": "account",
          "type": "address"
        }
      ],
      "name": "RemoveWhitelist",
      "type": "event"
    },
    {
      "anonymous": false,
      "inputs": [
        {
          "indexed": true,
          "internalType": "address",
          "name": "user",
          "type": "address"
        },
        {
          "indexed": false,
          "internalType": "uint256",
          "name": "amountIn",
          "type": "uint256"
        },
        {
          "indexed": false,
          "internalType": "uint256",
          "name": "amountOut",
          "type": "uint256"
        }
      ],
      "name": "Swap",
      "type": "event"
    },
    {
      "anonymous": false,
      "inputs": [
        {
          "indexed": false,
          "internalType": "uint256",
          "name": "reserve0",
          "type": "uint256"
        },
        {
          "indexed": false,
          "internalType": "uint256",
          "name": "reserve1",
          "type": "uint256"
        }
      ],
      "name": "Sync",
      "type": "event"
    },
    {
      "anonymous": false,
      "inputs": [
        {
          "indexed": true,
          "internalType": "address",
          "name": "from",
          "type": "address"
        },
        {
          "indexed": true,
          "internalType": "address",
          "name": "to",
          "type": "address"
        },
        {
          "indexed": false,
          "internalType": "uint256",
          "name": "value",
          "type": "uint256"
        }
      ],
      "name": "Transfer",
      "type": "event"
    },
    {
      "inputs": [
        {
          "internalType": "uint256",
          "name": "amountCrv",
          "type": "uint256"
        },
        {
          "internalType": "uint256",
          "name": "amountVe",
          "type": "uint256"
        }
      ],
      "name": "addLiquidity",
      "outputs": [],
      "stateMutability": "nonpayable",
      "type": "function"
    },
    {
      "inputs": [
        {
          "internalType": "address",
          "name": "_address",
          "type": "address"
        }
      ],
      "name": "addToWhitelist",
      "outputs": [],
      "stateMutability": "nonpayable",
      "type": "function"
    },
    {
      "inputs": [
        {
          "internalType": "address",
          "name": "",
          "type": "address"
        },
        {
          "internalType": "address",
          "name": "",
          "type": "address"
        }
      ],
      "name": "allowance",
      "outputs": [
        {
          "internalType": "uint256",
          "name": "",
          "type": "uint256"
        }
      ],
      "stateMutability": "view",
      "type": "function"
    },
    {
      "inputs": [
        {
          "internalType": "address",
          "name": "spender",
          "type": "address"
        },
        {
          "internalType": "uint256",
          "name": "amount",
          "type": "uint256"
        }
      ],
      "name": "approve",
      "outputs": [
        {
          "internalType": "bool",
          "name": "",
          "type": "bool"
        }
      ],
      "stateMutability": "nonpayable",
      "type": "function"
    },
    {
      "inputs": [
        {
          "internalType": "address",
          "name": "",
          "type": "address"
        }
      ],
      "name": "balanceOf",
      "outputs": [
        {
          "internalType": "uint256",
          "name": "",
          "type": "uint256"
        }
      ],
      "stateMutability": "view",
      "type": "function"
    },
    {
      "inputs": [],
      "name": "crvToken",
      "outputs": [
        {
          "internalType": "contract IERC20",
          "name": "",
          "type": "address"
        }
      ],
      "stateMutability": "view",
      "type": "function"
    },
    {
      "inputs": [],
      "name": "getReserves",
      "outputs": [
        {
          "internalType": "uint256",
          "name": "_reserve0",
          "type": "uint256"
        },
        {
          "internalType": "uint256",
          "name": "_reserve1",
          "type": "uint256"
        },
        {
          "internalType": "uint32",
          "name": "_blockTimestampLast",
          "type": "uint32"
        }
      ],
      "stateMutability": "view",
      "type": "function"
    },
    {
      "inputs": [],
      "name": "kLast",
      "outputs": [
        {
          "internalType": "uint256",
          "name": "",
          "type": "uint256"
        }
      ],
      "stateMutability": "view",
      "type": "function"
    },
    {
      "inputs": [],
      "name": "owner",
      "outputs": [
        {
          "internalType": "address",
          "name": "",
          "type": "address"
        }
      ],
      "stateMutability": "view",
      "type": "function"
    },
    {
      "inputs": [],
      "name": "price0CumulativeLast",
      "outputs": [
        {
          "internalType": "uint256",
          "name": "",
          "type": "uint256"
        }
      ],
      "stateMutability": "view",
      "type": "function"
    },
    {
      "inputs": [],
      "name": "price1CumulativeLast",
      "outputs": [
        {
          "internalType": "uint256",
          "name": "",
          "type": "uint256"
        }
      ],
      "stateMutability": "view",
      "type": "function"
    },
    {
      "inputs": [
        {
          "internalType": "uint256",
          "name": "liquidity",
          "type": "uint256"
        }
      ],
      "name": "removeLiquidity",
      "outputs": [],
      "stateMutability": "nonpayable",
      "type": "function"
    },
    {
      "inputs": [
        {
          "internalType": "address",
          "name": "_address",
          "type": "address"
        }
      ],
      "name": "removeToWhitelist",
      "outputs": [],
      "stateMutability": "nonpayable",
      "type": "function"
    },
    {
      "inputs": [
        {
          "internalType": "address",
          "name": "_address",
          "type": "address"
        }
      ],
      "name": "setOwner",
      "outputs": [],
      "stateMutability": "nonpayable",
      "type": "function"
    },
    {
      "inputs": [
        {
          "internalType": "uint256",
          "name": "VeAmount",
          "type": "uint256"
        },
        {
          "internalType": "address",
          "name": "to",
          "type": "address"
        }
      ],
      "name": "swapCRVToken",
      "outputs": [],
      "stateMutability": "nonpayable",
      "type": "function"
    },
    {
      "inputs": [
        {
          "internalType": "uint256",
          "name": "CrvAmount",
          "type": "uint256"
        },
        {
          "internalType": "address",
          "name": "to",
          "type": "address"
        }
      ],
      "name": "swapVEToken",
      "outputs": [],
      "stateMutability": "nonpayable",
      "type": "function"
    },
    {
      "inputs": [],
      "name": "sync",
      "outputs": [],
      "stateMutability": "nonpayable",
      "type": "function"
    },
    {
      "inputs": [],
      "name": "totalSupply",
      "outputs": [
        {
          "internalType": "uint256",
          "name": "",
          "type": "uint256"
        }
      ],
      "stateMutability": "view",
      "type": "function"
    },
    {
      "inputs": [
        {
          "internalType": "address",
          "name": "to",
          "type": "address"
        },
        {
          "internalType": "uint256",
          "name": "amount",
          "type": "uint256"
        }
      ],
      "name": "transfer",
      "outputs": [
        {
          "internalType": "bool",
          "name": "",
          "type": "bool"
        }
      ],
      "stateMutability": "nonpayable",
      "type": "function"
    },
    {
      "inputs": [
        {
          "internalType": "address",
          "name": "from",
          "type": "address"
        },
        {
          "internalType": "address",
          "name": "to",
          "type": "address"
        },
        {
          "internalType": "uint256",
          "name": "amount",
          "type": "uint256"
        }
      ],
      "name": "transferFrom",
      "outputs": [
        {
          "internalType": "bool",
          "name": "",
          "type": "bool"
        }
      ],
      "stateMutability": "nonpayable",
      "type": "function"
    },
    {
      "inputs": [],
      "name": "veToken",
      "outputs": [
        {
          "internalType": "contract IERC20",
          "name": "",
          "type": "address"
        }
      ],
      "stateMutability": "view",
      "type": "function"
    },
    {
      "inputs": [
        {
          "internalType": "address",
          "name": "",
          "type": "address"
        }
      ],
      "name": "whitelist",
      "outputs": [
        {
          "internalType": "bool",
          "name": "",
          "type": "bool"
        }
      ],
      "stateMutability": "view",
      "type": "function"
    }
  ],
  "bytecode": "0x60806040523480156200001157600080fd5b5060405162002b9038038062002b9083398181016040528101906200003791906200016b565b816000806101000a81548173ffffffffffffffffffffffffffffffffffffffff021916908373ffffffffffffffffffffffffffffffffffffffff16021790555080600160006101000a81548173ffffffffffffffffffffffffffffffffffffffff021916908373ffffffffffffffffffffffffffffffffffffffff16021790555033600c60006101000a81548173ffffffffffffffffffffffffffffffffffffffff021916908373ffffffffffffffffffffffffffffffffffffffff1602179055505050620001b2565b600080fd5b600073ffffffffffffffffffffffffffffffffffffffff82169050919050565b6000620001338262000106565b9050919050565b620001458162000126565b81146200015157600080fd5b50565b60008151905062000165816200013a565b92915050565b6000806040838503121562000185576200018462000101565b5b6000620001958582860162000154565b9250506020620001a88582860162000154565b9150509250929050565b6129ce80620001c26000396000f3fe608060405234801561001057600080fd5b50600436106101425760003560e01c80637464fc3d116100b8578063a9059cbb1161007c578063a9059cbb14610369578063af0dc2ed14610399578063dd62ed3e146103b5578063e43252d7146103e5578063fe1ced5e14610401578063fff6cae91461041d57610142565b80637464fc3d146102c55780638da5cb5b146102e35780639b19251a146103015780639c8f9f23146103315780639cd441da1461034d57610142565b806332d7d66d1161010a57806332d7d66d146102015780633b92eb231461021f5780633d20f6291461023d5780635909c0d5146102595780635a3d54931461027757806370a082311461029557610142565b80630902f1ac14610147578063095ea7b31461016757806313af40351461019757806318160ddd146101b357806323b872dd146101d1575b600080fd5b61014f610427565b60405161015e93929190611f62565b60405180910390f35b610181600480360381019061017c9190612028565b610450565b60405161018e9190612083565b60405180910390f35b6101b160048036038101906101ac919061209e565b610542565b005b6101bb610616565b6040516101c891906120cb565b60405180910390f35b6101eb60048036038101906101e691906120e6565b61061c565b6040516101f89190612083565b60405180910390f35b610209610784565b6040516102169190612198565b60405180910390f35b6102276107a8565b6040516102349190612198565b60405180910390f35b610257600480360381019061025291906121b3565b6107ce565b005b610261610b77565b60405161026e91906120cb565b60405180910390f35b61027f610b7d565b60405161028c91906120cb565b60405180910390f35b6102af60048036038101906102aa919061209e565b610b83565b6040516102bc91906120cb565b60405180910390f35b6102cd610b9b565b6040516102da91906120cb565b60405180910390f35b6102eb610ba1565b6040516102f89190612202565b60405180910390f35b61031b6004803603810190610316919061209e565b610bc7565b6040516103289190612083565b60405180910390f35b61034b6004803603810190610346919061221d565b610be7565b005b6103676004803603810190610362919061224a565b61116d565b005b610383600480360381019061037e9190612028565b6114dd565b6040516103909190612083565b60405180910390f35b6103b360048036038101906103ae91906121b3565b6114f4565b005b6103cf60048036038101906103ca919061228a565b611811565b6040516103dc91906120cb565b60405180910390f35b6103ff60048036038101906103fa919061209e565b611836565b005b61041b6004803603810190610416919061209e565b6119d3565b005b610425611b70565b005b600080600060065492506007549150600860009054906101000a900463ffffffff169050909192565b600081600560003373ffffffffffffffffffffffffffffffffffffffff1673ffffffffffffffffffffffffffffffffffffffff16815260200190815260200160002060008573ffffffffffffffffffffffffffffffffffffffff1673ffffffffffffffffffffffffffffffffffffffff168152602001908152602001600020819055508273ffffffffffffffffffffffffffffffffffffffff163373ffffffffffffffffffffffffffffffffffffffff167f8c5be1e5ebec7d5bd14f71427d1e84f3dd0314c0f7b2291e5b200ac8c7c3b9258460405161053091906120cb565b60405180910390a36001905092915050565b3373ffffffffffffffffffffffffffffffffffffffff16600c60009054906101000a900473ffffffffffffffffffffffffffffffffffffffff1673ffffffffffffffffffffffffffffffffffffffff16146105d2576040517f08c379a00000000000000000000000000000000000000000000000000000000081526004016105c990612327565b60405180910390fd5b80600c60006101000a81548173ffffffffffffffffffffffffffffffffffffffff021916908373ffffffffffffffffffffffffffffffffffffffff16021790555050565b60025481565b600080600560008673ffffffffffffffffffffffffffffffffffffffff1673ffffffffffffffffffffffffffffffffffffffff16815260200190815260200160002060003373ffffffffffffffffffffffffffffffffffffffff1673ffffffffffffffffffffffffffffffffffffffff168152602001908152602001600020549050828110156106e1576040517f08c379a00000000000000000000000000000000000000000000000000000000081526004016106d8906123b9565b60405180910390fd5b82816106ed9190612408565b600560008773ffffffffffffffffffffffffffffffffffffffff1673ffffffffffffffffffffffffffffffffffffffff16815260200190815260200160002060003373ffffffffffffffffffffffffffffffffffffffff1673ffffffffffffffffffffffffffffffffffffffff16815260200190815260200160002081905550610778858585611cb0565b60019150509392505050565b60008054906101000a900473ffffffffffffffffffffffffffffffffffffffff1681565b600160009054906101000a900473ffffffffffffffffffffffffffffffffffffffff1681565b600360003373ffffffffffffffffffffffffffffffffffffffff1673ffffffffffffffffffffffffffffffffffffffff16815260200190815260200160002060009054906101000a900460ff1661085a576040517f08c379a000000000000000000000000000000000000000000000000000000000815260040161085190612488565b60405180910390fd5b600080610865610427565b509150915060008411801561087a5750818411155b61088357600080fd5b60008054906101000a900473ffffffffffffffffffffffffffffffffffffffff1673ffffffffffffffffffffffffffffffffffffffff166323b872dd3330876040518463ffffffff1660e01b81526004016108e0939291906124a8565b6020604051808303816000875af11580156108ff573d6000803e3d6000fd5b505050506040513d601f19601f82011682018060405250810190610923919061250b565b5060008490508181111561093657600080fd5b600160009054906101000a900473ffffffffffffffffffffffffffffffffffffffff1673ffffffffffffffffffffffffffffffffffffffff1663a9059cbb85836040518363ffffffff1660e01b8152600401610993929190612538565b6020604051808303816000875af11580156109b2573d6000803e3d6000fd5b505050506040513d601f19601f820116820180604052508101906109d6919061250b565b5060008060008054906101000a900473ffffffffffffffffffffffffffffffffffffffff1673ffffffffffffffffffffffffffffffffffffffff166370a08231306040518263ffffffff1660e01b8152600401610a339190612202565b602060405180830381865afa158015610a50573d6000803e3d6000fd5b505050506040513d601f19601f82011682018060405250810190610a749190612576565b9150600160009054906101000a900473ffffffffffffffffffffffffffffffffffffffff1673ffffffffffffffffffffffffffffffffffffffff166370a08231306040518263ffffffff1660e01b8152600401610ad19190612202565b602060405180830381865afa158015610aee573d6000803e3d6000fd5b505050506040513d601f19601f82011682018060405250810190610b129190612576565b9050610b1e8282611ea4565b3373ffffffffffffffffffffffffffffffffffffffff167f77f92a1b6a1a11de8ca49515ad4c1fad45632dd3442167d74b90b304a3c7a7588885604051610b669291906125a3565b60405180910390a250505050505050565b60095481565b600a5481565b60046020528060005260406000206000915090505481565b600b5481565b600c60009054906101000a900473ffffffffffffffffffffffffffffffffffffffff1681565b60036020528060005260406000206000915054906101000a900460ff1681565b600080610bf2610427565b5091509150600083118015610c0957508260025410155b610c48576040517f08c379a0000000000000000000000000000000000000000000000000000000008152600401610c3f90612618565b60405180910390fd5b600060025460008054906101000a900473ffffffffffffffffffffffffffffffffffffffff1673ffffffffffffffffffffffffffffffffffffffff166370a08231306040518263ffffffff1660e01b8152600401610ca69190612202565b602060405180830381865afa158015610cc3573d6000803e3d6000fd5b505050506040513d601f19601f82011682018060405250810190610ce79190612576565b85610cf29190612638565b610cfc91906126a9565b90506000600254600160009054906101000a900473ffffffffffffffffffffffffffffffffffffffff1673ffffffffffffffffffffffffffffffffffffffff166370a08231306040518263ffffffff1660e01b8152600401610d5e9190612202565b602060405180830381865afa158015610d7b573d6000803e3d6000fd5b505050506040513d601f19601f82011682018060405250810190610d9f9190612576565b86610daa9190612638565b610db491906126a9565b9050600082118015610dc65750600081115b610e05576040517f08c379a0000000000000000000000000000000000000000000000000000000008152600401610dfc90612726565b60405180910390fd5b8382108015610e1357508281105b610e1c57600080fd5b8460026000828254610e2e9190612408565b9250508190555084600460003373ffffffffffffffffffffffffffffffffffffffff1673ffffffffffffffffffffffffffffffffffffffff1681526020019081526020016000206000828254610e849190612408565b9250508190555060008054906101000a900473ffffffffffffffffffffffffffffffffffffffff1673ffffffffffffffffffffffffffffffffffffffff1663a9059cbb33846040518363ffffffff1660e01b8152600401610ee6929190612538565b6020604051808303816000875af1158015610f05573d6000803e3d6000fd5b505050506040513d601f19601f82011682018060405250810190610f29919061250b565b50600160009054906101000a900473ffffffffffffffffffffffffffffffffffffffff1673ffffffffffffffffffffffffffffffffffffffff1663a9059cbb33836040518363ffffffff1660e01b8152600401610f87929190612538565b6020604051808303816000875af1158015610fa6573d6000803e3d6000fd5b505050506040513d601f19601f82011682018060405250810190610fca919061250b565b5060008060008054906101000a900473ffffffffffffffffffffffffffffffffffffffff1673ffffffffffffffffffffffffffffffffffffffff166370a08231306040518263ffffffff1660e01b81526004016110279190612202565b602060405180830381865afa158015611044573d6000803e3d6000fd5b505050506040513d601f19601f820116820180604052508101906110689190612576565b9150600160009054906101000a900473ffffffffffffffffffffffffffffffffffffffff1673ffffffffffffffffffffffffffffffffffffffff166370a08231306040518263ffffffff1660e01b81526004016110c59190612202565b602060405180830381865afa1580156110e2573d6000803e3d6000fd5b505050506040513d601f19601f820116820180604052508101906111069190612576565b90506111128282611ea4565b3373ffffffffffffffffffffffffffffffffffffffff167f59c3a0b60c6ab7deb62e1440c9e72441db6db7dfe514dba8cb18e60c0d896efa85858a60405161115c93929190612746565b60405180910390a250505050505050565b60008054906101000a900473ffffffffffffffffffffffffffffffffffffffff1673ffffffffffffffffffffffffffffffffffffffff166323b872dd3330856040518463ffffffff1660e01b81526004016111ca939291906124a8565b6020604051808303816000875af11580156111e9573d6000803e3d6000fd5b505050506040513d601f19601f8201168201806040525081019061120d919061250b565b50600160009054906101000a900473ffffffffffffffffffffffffffffffffffffffff1673ffffffffffffffffffffffffffffffffffffffff166323b872dd3330846040518463ffffffff1660e01b815260040161126d939291906124a8565b6020604051808303816000875af115801561128c573d6000803e3d6000fd5b505050506040513d601f19601f820116820180604052508101906112b0919061250b565b50600060025482846112c29190612638565b6112cc91906126a9565b905080600260008282546112e0919061277d565b9250508190555080600460003373ffffffffffffffffffffffffffffffffffffffff1673ffffffffffffffffffffffffffffffffffffffff1681526020019081526020016000206000828254611336919061277d565b9250508190555060008060008054906101000a900473ffffffffffffffffffffffffffffffffffffffff1673ffffffffffffffffffffffffffffffffffffffff166370a08231306040518263ffffffff1660e01b81526004016113999190612202565b602060405180830381865afa1580156113b6573d6000803e3d6000fd5b505050506040513d601f19601f820116820180604052508101906113da9190612576565b9150600160009054906101000a900473ffffffffffffffffffffffffffffffffffffffff1673ffffffffffffffffffffffffffffffffffffffff166370a08231306040518263ffffffff1660e01b81526004016114379190612202565b602060405180830381865afa158015611454573d6000803e3d6000fd5b505050506040513d601f19601f820116820180604052508101906114789190612576565b90506114848282611ea4565b3373ffffffffffffffffffffffffffffffffffffffff167fbeb3885786d637a474cbc287c0a44587231633a077f0bd30354d5a4b18996fce8686866040516114ce93929190612746565b60405180910390a25050505050565b60006114ea338484611cb0565b6001905092915050565b6000806114ff610427565b50915091506000841180156115145750808411155b61151d57600080fd5b600160009054906101000a900473ffffffffffffffffffffffffffffffffffffffff1673ffffffffffffffffffffffffffffffffffffffff166323b872dd3330876040518463ffffffff1660e01b815260040161157c939291906124a8565b6020604051808303816000875af115801561159b573d6000803e3d6000fd5b505050506040513d601f19601f820116820180604052508101906115bf919061250b565b506000849050828111156115d257600080fd5b60008054906101000a900473ffffffffffffffffffffffffffffffffffffffff1673ffffffffffffffffffffffffffffffffffffffff1663a9059cbb85876040518363ffffffff1660e01b815260040161162d929190612538565b6020604051808303816000875af115801561164c573d6000803e3d6000fd5b505050506040513d601f19601f82011682018060405250810190611670919061250b565b5060008060008054906101000a900473ffffffffffffffffffffffffffffffffffffffff1673ffffffffffffffffffffffffffffffffffffffff166370a08231306040518263ffffffff1660e01b81526004016116cd9190612202565b602060405180830381865afa1580156116ea573d6000803e3d6000fd5b505050506040513d601f19601f8201168201806040525081019061170e9190612576565b9150600160009054906101000a900473ffffffffffffffffffffffffffffffffffffffff1673ffffffffffffffffffffffffffffffffffffffff166370a08231306040518263ffffffff1660e01b815260040161176b9190612202565b602060405180830381865afa158015611788573d6000803e3d6000fd5b505050506040513d601f19601f820116820180604052508101906117ac9190612576565b90506117b88282611ea4565b3373ffffffffffffffffffffffffffffffffffffffff167f77f92a1b6a1a11de8ca49515ad4c1fad45632dd3442167d74b90b304a3c7a75884896040516118009291906125a3565b60405180910390a250505050505050565b6005602052816000526040600020602052806000526040600020600091509150505481565b3373ffffffffffffffffffffffffffffffffffffffff16600c60009054906101000a900473ffffffffffffffffffffffffffffffffffffffff1673ffffffffffffffffffffffffffffffffffffffff16146118c6576040517f08c379a00000000000000000000000000000000000000000000000000000000081526004016118bd90612327565b60405180910390fd5b600073ffffffffffffffffffffffffffffffffffffffff168173ffffffffffffffffffffffffffffffffffffffff1603611935576040517f08c379a000000000000000000000000000000000000000000000000000000000815260040161192c90612823565b60405180910390fd5b6001600360008373ffffffffffffffffffffffffffffffffffffffff1673ffffffffffffffffffffffffffffffffffffffff16815260200190815260200160002060006101000a81548160ff0219169083151502179055508073ffffffffffffffffffffffffffffffffffffffff167f75b2135d1c8c3519f3c09c43fe6527089ef09f40c7981ebf0ed46e79e79032c760405160405180910390a250565b3373ffffffffffffffffffffffffffffffffffffffff16600c60009054906101000a900473ffffffffffffffffffffffffffffffffffffffff1673ffffffffffffffffffffffffffffffffffffffff1614611a63576040517f08c379a0000000000000000000000000000000000000000000000000000000008152600401611a5a90612327565b60405180910390fd5b600073ffffffffffffffffffffffffffffffffffffffff168173ffffffffffffffffffffffffffffffffffffffff1603611ad2576040517f08c379a0000000000000000000000000000000000000000000000000000000008152600401611ac990612823565b60405180910390fd5b6000600360008373ffffffffffffffffffffffffffffffffffffffff1673ffffffffffffffffffffffffffffffffffffffff16815260200190815260200160002060006101000a81548160ff0219169083151502179055508073ffffffffffffffffffffffffffffffffffffffff167f75b2135d1c8c3519f3c09c43fe6527089ef09f40c7981ebf0ed46e79e79032c760405160405180910390a250565b611cae60008054906101000a900473ffffffffffffffffffffffffffffffffffffffff1673ffffffffffffffffffffffffffffffffffffffff166370a08231306040518263ffffffff1660e01b8152600401611bcc9190612202565b602060405180830381865afa158015611be9573d6000803e3d6000fd5b505050506040513d601f19601f82011682018060405250810190611c0d9190612576565b600160009054906101000a900473ffffffffffffffffffffffffffffffffffffffff1673ffffffffffffffffffffffffffffffffffffffff166370a08231306040518263ffffffff1660e01b8152600401611c689190612202565b602060405180830381865afa158015611c85573d6000803e3d6000fd5b505050506040513d601f19601f82011682018060405250810190611ca99190612576565b611ea4565b565b600073ffffffffffffffffffffffffffffffffffffffff168373ffffffffffffffffffffffffffffffffffffffff1603611d1f576040517f08c379a0000000000000000000000000000000000000000000000000000000008152600401611d16906128b5565b60405180910390fd5b600073ffffffffffffffffffffffffffffffffffffffff168273ffffffffffffffffffffffffffffffffffffffff1603611d8e576040517f08c379a0000000000000000000000000000000000000000000000000000000008152600401611d8590612947565b60405180910390fd5b80600460008573ffffffffffffffffffffffffffffffffffffffff1673ffffffffffffffffffffffffffffffffffffffff1681526020019081526020016000206000828254611ddd9190612408565b9250508190555080600460008473ffffffffffffffffffffffffffffffffffffffff1673ffffffffffffffffffffffffffffffffffffffff1681526020019081526020016000206000828254611e33919061277d565b925050819055508173ffffffffffffffffffffffffffffffffffffffff168373ffffffffffffffffffffffffffffffffffffffff167fddf252ad1be2c89b69c2b068fc378daa952ba7f163c4a11628f55a4df523b3ef83604051611e9791906120cb565b60405180910390a3505050565b600064010000000042611eb79190612967565b9050826006819055508160078190555080600860006101000a81548163ffffffff021916908363ffffffff1602179055507fcf2aa50876cdfbb541206f89af0ee78d44a2abf8d328e37fa4917f982149848a600654600754604051611f1d9291906125a3565b60405180910390a1505050565b6000819050919050565b611f3d81611f2a565b82525050565b600063ffffffff82169050919050565b611f5c81611f43565b82525050565b6000606082019050611f776000830186611f34565b611f846020830185611f34565b611f916040830184611f53565b949350505050565b600080fd5b600073ffffffffffffffffffffffffffffffffffffffff82169050919050565b6000611fc982611f9e565b9050919050565b611fd981611fbe565b8114611fe457600080fd5b50565b600081359050611ff681611fd0565b92915050565b61200581611f2a565b811461201057600080fd5b50565b60008135905061202281611ffc565b92915050565b6000806040838503121561203f5761203e611f99565b5b600061204d85828601611fe7565b925050602061205e85828601612013565b9150509250929050565b60008115159050919050565b61207d81612068565b82525050565b60006020820190506120986000830184612074565b92915050565b6000602082840312156120b4576120b3611f99565b5b60006120c284828501611fe7565b91505092915050565b60006020820190506120e06000830184611f34565b92915050565b6000806000606084860312156120ff576120fe611f99565b5b600061210d86828701611fe7565b935050602061211e86828701611fe7565b925050604061212f86828701612013565b9150509250925092565b6000819050919050565b600061215e61215961215484611f9e565b612139565b611f9e565b9050919050565b600061217082612143565b9050919050565b600061218282612165565b9050919050565b61219281612177565b82525050565b60006020820190506121ad6000830184612189565b92915050565b600080604083850312156121ca576121c9611f99565b5b60006121d885828601612013565b92505060206121e985828601611fe7565b9150509250929050565b6121fc81611fbe565b82525050565b600060208201905061221760008301846121f3565b92915050565b60006020828403121561223357612232611f99565b5b600061224184828501612013565b91505092915050565b6000806040838503121561226157612260611f99565b5b600061226f85828601612013565b925050602061228085828601612013565b9150509250929050565b600080604083850312156122a1576122a0611f99565b5b60006122af85828601611fe7565b92505060206122c085828601611fe7565b9150509250929050565b600082825260208201905092915050565b7f41646472657373206d757374206f776e65720000000000000000000000000000600082015250565b60006123116012836122ca565b915061231c826122db565b602082019050919050565b6000602082019050818103600083015261234081612304565b9050919050565b7f45524332303a207472616e7366657220616d6f756e742065786365656473206160008201527f6c6c6f77616e6365000000000000000000000000000000000000000000000000602082015250565b60006123a36028836122ca565b91506123ae82612347565b604082019050919050565b600060208201905081810360008301526123d281612396565b9050919050565b7f4e487b7100000000000000000000000000000000000000000000000000000000600052601160045260246000fd5b600061241382611f2a565b915061241e83611f2a565b9250828203905081811115612436576124356123d9565b5b92915050565b7f41646472657373206973206e6f742077686974656c6973746564000000000000600082015250565b6000612472601a836122ca565b915061247d8261243c565b602082019050919050565b600060208201905081810360008301526124a181612465565b9050919050565b60006060820190506124bd60008301866121f3565b6124ca60208301856121f3565b6124d76040830184611f34565b949350505050565b6124e881612068565b81146124f357600080fd5b50565b600081519050612505816124df565b92915050565b60006020828403121561252157612520611f99565b5b600061252f848285016124f6565b91505092915050565b600060408201905061254d60008301856121f3565b61255a6020830184611f34565b9392505050565b60008151905061257081611ffc565b92915050565b60006020828403121561258c5761258b611f99565b5b600061259a84828501612561565b91505092915050565b60006040820190506125b86000830185611f34565b6125c56020830184611f34565b9392505050565b7f496e76616c6964206c6971756964697479000000000000000000000000000000600082015250565b60006126026011836122ca565b915061260d826125cc565b602082019050919050565b60006020820190508181036000830152612631816125f5565b9050919050565b600061264382611f2a565b915061264e83611f2a565b925082820261265c81611f2a565b91508282048414831517612673576126726123d9565b5b5092915050565b7f4e487b7100000000000000000000000000000000000000000000000000000000600052601260045260246000fd5b60006126b482611f2a565b91506126bf83611f2a565b9250826126cf576126ce61267a565b5b828204905092915050565b7f496e73756666696369656e74206c697175696469747900000000000000000000600082015250565b60006127106016836122ca565b915061271b826126da565b602082019050919050565b6000602082019050818103600083015261273f81612703565b9050919050565b600060608201905061275b6000830186611f34565b6127686020830185611f34565b6127756040830184611f34565b949350505050565b600061278882611f2a565b915061279383611f2a565b92508282019050808211156127ab576127aa6123d9565b5b92915050565b7f5a65726f20616464726573732063616e6e6f742062652077686974656c69737460008201527f6564000000000000000000000000000000000000000000000000000000000000602082015250565b600061280d6022836122ca565b9150612818826127b1565b604082019050919050565b6000602082019050818103600083015261283c81612800565b9050919050565b7f45524332303a207472616e736665722066726f6d20746865207a65726f20616460008201527f6472657373000000000000000000000000000000000000000000000000000000602082015250565b600061289f6025836122ca565b91506128aa82612843565b604082019050919050565b600060208201905081810360008301526128ce81612892565b9050919050565b7f45524332303a207472616e7366657220746f20746865207a65726f206164647260008201527f6573730000000000000000000000000000000000000000000000000000000000602082015250565b60006129316023836122ca565b915061293c826128d5565b604082019050919050565b6000602082019050818103600083015261296081612924565b9050919050565b600061297282611f2a565b915061297d83611f2a565b92508261298d5761298c61267a565b5b82820690509291505056fea26469706673582212208aab74435f70fcf62711ce5fd647ba4b14631454674ab4c069fd18430eb4f92864736f6c63430008180033",
  "linkReferences": {},
  "deployedLinkReferences": {}
}