{
  "_format": "hh-sol-artifact-1",
  "contractName": "StakingContract",
  "sourceName": "contracts/Stake/stake.sol",
  "abi": [
    {
      "inputs": [
        {
          "internalType": "address",
          "name": "_crvToken",
          "type": "address"
        },
        {
          "internalType": "uint256",
          "name": "_rewardRate",
          "type": "uint256"
        }
      ],
      "stateMutability": "nonpayable",
      "type": "constructor"
    },
    {
      "anonymous": false,
      "inputs": [
        {
          "indexed": true,
          "internalType": "address",
          "name": "account",
          "type": "address"
        },
        {
          "indexed": false,
          "internalType": "uint256",
          "name": "amount",
          "type": "uint256"
        }
      ],
      "name": "RewardClaimed",
      "type": "event"
    },
    {
      "anonymous": false,
      "inputs": [
        {
          "indexed": true,
          "internalType": "address",
          "name": "account",
          "type": "address"
        },
        {
          "indexed": false,
          "internalType": "uint256",
          "name": "amount",
          "type": "uint256"
        }
      ],
      "name": "Staked",
      "type": "event"
    },
    {
      "anonymous": false,
      "inputs": [
        {
          "indexed": true,
          "internalType": "address",
          "name": "account",
          "type": "address"
        },
        {
          "indexed": false,
          "internalType": "uint256",
          "name": "amount",
          "type": "uint256"
        }
      ],
      "name": "Unstaked",
      "type": "event"
    },
    {
      "inputs": [],
      "name": "ONE_WEEK",
      "outputs": [
        {
          "internalType": "uint256",
          "name": "",
          "type": "uint256"
        }
      ],
      "stateMutability": "view",
      "type": "function"
    },
    {
      "inputs": [
        {
          "internalType": "address",
          "name": "account",
          "type": "address"
        }
      ],
      "name": "calculateReward",
      "outputs": [
        {
          "internalType": "uint256",
          "name": "",
          "type": "uint256"
        }
      ],
      "stateMutability": "view",
      "type": "function"
    },
    {
      "inputs": [],
      "name": "claimReward",
      "outputs": [],
      "stateMutability": "nonpayable",
      "type": "function"
    },
    {
      "inputs": [],
      "name": "crvToken",
      "outputs": [
        {
          "internalType": "contract IERC20",
          "name": "",
          "type": "address"
        }
      ],
      "stateMutability": "view",
      "type": "function"
    },
    {
      "inputs": [],
      "name": "exchangeRate",
      "outputs": [
        {
          "internalType": "uint256",
          "name": "",
          "type": "uint256"
        }
      ],
      "stateMutability": "view",
      "type": "function"
    },
    {
      "inputs": [
        {
          "internalType": "address",
          "name": "account",
          "type": "address"
        }
      ],
      "name": "getStakeAmount",
      "outputs": [
        {
          "internalType": "uint256",
          "name": "",
          "type": "uint256"
        }
      ],
      "stateMutability": "view",
      "type": "function"
    },
    {
      "inputs": [],
      "name": "owner",
      "outputs": [
        {
          "internalType": "address",
          "name": "",
          "type": "address"
        }
      ],
      "stateMutability": "view",
      "type": "function"
    },
    {
      "inputs": [],
      "name": "rewardRate",
      "outputs": [
        {
          "internalType": "uint256",
          "name": "",
          "type": "uint256"
        }
      ],
      "stateMutability": "view",
      "type": "function"
    },
    {
      "inputs": [
        {
          "internalType": "address",
          "name": "_owner",
          "type": "address"
        }
      ],
      "name": "setOwner",
      "outputs": [],
      "stateMutability": "nonpayable",
      "type": "function"
    },
    {
      "inputs": [],
      "name": "stake",
      "outputs": [],
      "stateMutability": "payable",
      "type": "function"
    },
    {
      "inputs": [
        {
          "internalType": "address",
          "name": "",
          "type": "address"
        }
      ],
      "name": "stakes",
      "outputs": [
        {
          "internalType": "uint256",
          "name": "amount",
          "type": "uint256"
        },
        {
          "internalType": "uint256",
          "name": "timestamp",
          "type": "uint256"
        }
      ],
      "stateMutability": "view",
      "type": "function"
    },
    {
      "inputs": [],
      "name": "totalStakedETH",
      "outputs": [
        {
          "internalType": "uint256",
          "name": "",
          "type": "uint256"
        }
      ],
      "stateMutability": "view",
      "type": "function"
    },
    {
      "inputs": [],
      "name": "unstake",
      "outputs": [],
      "stateMutability": "nonpayable",
      "type": "function"
    },
    {
      "inputs": [
        {
          "internalType": "uint256",
          "name": "rate",
          "type": "uint256"
        }
      ],
      "name": "updateExchangeRate",
      "outputs": [],
      "stateMutability": "nonpayable",
      "type": "function"
    },
    {
      "inputs": [
        {
          "internalType": "uint256",
          "name": "rate",
          "type": "uint256"
        }
      ],
      "name": "updateRewardRate",
      "outputs": [],
      "stateMutability": "nonpayable",
      "type": "function"
    }
  ],
  "bytecode": "0x60806040523480156200001157600080fd5b506040516200150738038062001507833981810160405281019062000037919062000174565b816000806101000a81548173ffffffffffffffffffffffffffffffffffffffff021916908373ffffffffffffffffffffffffffffffffffffffff160217905550600a6001819055508060028190555033600460006101000a81548173ffffffffffffffffffffffffffffffffffffffff021916908373ffffffffffffffffffffffffffffffffffffffff1602179055505050620001bb565b600080fd5b600073ffffffffffffffffffffffffffffffffffffffff82169050919050565b60006200010182620000d4565b9050919050565b6200011381620000f4565b81146200011f57600080fd5b50565b600081519050620001338162000108565b92915050565b6000819050919050565b6200014e8162000139565b81146200015a57600080fd5b50565b6000815190506200016e8162000143565b92915050565b600080604083850312156200018e576200018d620000cf565b5b60006200019e8582860162000122565b9250506020620001b1858286016200015d565b9150509250929050565b61133c80620001cb6000396000f3fe6080604052600436106100e85760003560e01c80637b0a47ee1161008a578063ad73bfd511610059578063ad73bfd5146102b2578063b88a802f146102dd578063b9e205ae146102f4578063d82e39621461031d576100e8565b80637b0a47ee146102085780638da5cb5b146102335780638e6f6b771461025e5780639ef3a26114610289576100e8565b80632def6620116100c65780632def66201461019157806332d7d66d146101a85780633a4b66f1146101d35780633ba0b9a9146101dd576100e8565b80630c2eb403146100ed57806313af40351461012a57806316934fc414610153575b600080fd5b3480156100f957600080fd5b50610114600480360381019061010f9190610d74565b61035a565b6040516101219190610dba565b60405180910390f35b34801561013657600080fd5b50610151600480360381019061014c9190610d74565b6103a6565b005b34801561015f57600080fd5b5061017a60048036038101906101759190610d74565b61047a565b604051610188929190610dd5565b60405180910390f35b34801561019d57600080fd5b506101a661049e565b005b3480156101b457600080fd5b506101bd61073f565b6040516101ca9190610e5d565b60405180910390f35b6101db610763565b005b3480156101e957600080fd5b506101f261092c565b6040516101ff9190610dba565b60405180910390f35b34801561021457600080fd5b5061021d610932565b60405161022a9190610dba565b60405180910390f35b34801561023f57600080fd5b50610248610938565b6040516102559190610e87565b60405180910390f35b34801561026a57600080fd5b5061027361095e565b6040516102809190610dba565b60405180910390f35b34801561029557600080fd5b506102b060048036038101906102ab9190610ece565b610965565b005b3480156102be57600080fd5b506102c76109ff565b6040516102d49190610dba565b60405180910390f35b3480156102e957600080fd5b506102f2610a05565b005b34801561030057600080fd5b5061031b60048036038101906103169190610ece565b610b8c565b005b34801561032957600080fd5b50610344600480360381019061033f9190610d74565b610c26565b6040516103519190610dba565b60405180910390f35b6000600560008373ffffffffffffffffffffffffffffffffffffffff1673ffffffffffffffffffffffffffffffffffffffff168152602001908152602001600020600001549050919050565b3373ffffffffffffffffffffffffffffffffffffffff16600460009054906101000a900473ffffffffffffffffffffffffffffffffffffffff1673ffffffffffffffffffffffffffffffffffffffff1614610436576040517f08c379a000000000000000000000000000000000000000000000000000000000815260040161042d90610f7e565b60405180910390fd5b80600460006101000a81548173ffffffffffffffffffffffffffffffffffffffff021916908373ffffffffffffffffffffffffffffffffffffffff16021790555050565b60056020528060005260406000206000915090508060000154908060010154905082565b6000600560003373ffffffffffffffffffffffffffffffffffffffff1673ffffffffffffffffffffffffffffffffffffffff16815260200190815260200160002090506000816000015411610528576040517f08c379a000000000000000000000000000000000000000000000000000000000815260040161051f90610fea565b60405180910390fd5b600081600001549050600061053c33610c26565b9050600560003373ffffffffffffffffffffffffffffffffffffffff1673ffffffffffffffffffffffffffffffffffffffff1681526020019081526020016000206000808201600090556001820160009055505060008054906101000a900473ffffffffffffffffffffffffffffffffffffffff1673ffffffffffffffffffffffffffffffffffffffff166323b872dd3330600154866105dc9190611039565b6040518463ffffffff1660e01b81526004016105fa9392919061107b565b6020604051808303816000875af1158015610619573d6000803e3d6000fd5b505050506040513d601f19601f8201168201806040525081019061063d91906110ea565b503373ffffffffffffffffffffffffffffffffffffffff166108fc839081150290604051600060405180830381858888f19350505050158015610684573d6000803e3d6000fd5b5081600360008282546106979190611117565b925050819055503373ffffffffffffffffffffffffffffffffffffffff167f0f5bb82176feb1b5e747e28471aa92156a04d9f3ab9f45f28e2d704232b93f75836040516106e49190610dba565b60405180910390a23373ffffffffffffffffffffffffffffffffffffffff167f106f923f993c2149d49b4255ff723acafa1f2d94393f561d3eda32ae348f7241826040516107329190610dba565b60405180910390a2505050565b60008054906101000a900473ffffffffffffffffffffffffffffffffffffffff1681565b600034116107a6576040517f08c379a000000000000000000000000000000000000000000000000000000000815260040161079d906111bd565b60405180910390fd5b600034905060008054906101000a900473ffffffffffffffffffffffffffffffffffffffff1673ffffffffffffffffffffffffffffffffffffffff1663a9059cbb33600154846107f69190611039565b6040518363ffffffff1660e01b81526004016108139291906111dd565b6020604051808303816000875af1158015610832573d6000803e3d6000fd5b505050506040513d601f19601f8201168201806040525081019061085691906110ea565b5080600360008282546108699190611206565b92505081905550604051806040016040528082815260200142815250600560003373ffffffffffffffffffffffffffffffffffffffff1673ffffffffffffffffffffffffffffffffffffffff16815260200190815260200160002060008201518160000155602082015181600101559050503373ffffffffffffffffffffffffffffffffffffffff167f9e71bc8eea02a63969f509818f2dafb9254532904319f9dbda79b67bd34a5f3d826040516109219190610dba565b60405180910390a250565b60015481565b60025481565b600460009054906101000a900473ffffffffffffffffffffffffffffffffffffffff1681565b62093a8081565b3373ffffffffffffffffffffffffffffffffffffffff16600460009054906101000a900473ffffffffffffffffffffffffffffffffffffffff1673ffffffffffffffffffffffffffffffffffffffff16146109f5576040517f08c379a00000000000000000000000000000000000000000000000000000000081526004016109ec90610f7e565b60405180910390fd5b8060028190555050565b60035481565b6000610a1033610c26565b905060008111610a55576040517f08c379a0000000000000000000000000000000000000000000000000000000008152600401610a4c90611286565b60405180910390fd5b42600560003373ffffffffffffffffffffffffffffffffffffffff1673ffffffffffffffffffffffffffffffffffffffff1681526020019081526020016000206001018190555060008054906101000a900473ffffffffffffffffffffffffffffffffffffffff1673ffffffffffffffffffffffffffffffffffffffff1663a9059cbb33836040518363ffffffff1660e01b8152600401610af79291906111dd565b6020604051808303816000875af1158015610b16573d6000803e3d6000fd5b505050506040513d601f19601f82011682018060405250810190610b3a91906110ea565b503373ffffffffffffffffffffffffffffffffffffffff167f106f923f993c2149d49b4255ff723acafa1f2d94393f561d3eda32ae348f724182604051610b819190610dba565b60405180910390a250565b3373ffffffffffffffffffffffffffffffffffffffff16600460009054906101000a900473ffffffffffffffffffffffffffffffffffffffff1673ffffffffffffffffffffffffffffffffffffffff1614610c1c576040517f08c379a0000000000000000000000000000000000000000000000000000000008152600401610c1390610f7e565b60405180910390fd5b8060018190555050565b600080600560008473ffffffffffffffffffffffffffffffffffffffff1673ffffffffffffffffffffffffffffffffffffffff16815260200190815260200160002090506000816000015411610cb1576040517f08c379a0000000000000000000000000000000000000000000000000000000008152600401610ca890610fea565b60405180910390fd5b6000816001015442610cc39190611117565b9050600062093a8082600254610cd99190611039565b610ce391906112d5565b905060006064828560000154610cf99190611039565b610d0391906112d5565b905080945050505050919050565b600080fd5b600073ffffffffffffffffffffffffffffffffffffffff82169050919050565b6000610d4182610d16565b9050919050565b610d5181610d36565b8114610d5c57600080fd5b50565b600081359050610d6e81610d48565b92915050565b600060208284031215610d8a57610d89610d11565b5b6000610d9884828501610d5f565b91505092915050565b6000819050919050565b610db481610da1565b82525050565b6000602082019050610dcf6000830184610dab565b92915050565b6000604082019050610dea6000830185610dab565b610df76020830184610dab565b9392505050565b6000819050919050565b6000610e23610e1e610e1984610d16565b610dfe565b610d16565b9050919050565b6000610e3582610e08565b9050919050565b6000610e4782610e2a565b9050919050565b610e5781610e3c565b82525050565b6000602082019050610e726000830184610e4e565b92915050565b610e8181610d36565b82525050565b6000602082019050610e9c6000830184610e78565b92915050565b610eab81610da1565b8114610eb657600080fd5b50565b600081359050610ec881610ea2565b92915050565b600060208284031215610ee457610ee3610d11565b5b6000610ef284828501610eb9565b91505092915050565b600082825260208201905092915050565b7f4f6e6c792074686520636f6e7472616374206f776e65722063616e2063616c6c60008201527f20746869732066756e6374696f6e2e0000000000000000000000000000000000602082015250565b6000610f68602f83610efb565b9150610f7382610f0c565b604082019050919050565b60006020820190508181036000830152610f9781610f5b565b9050919050565b7f4e6f207374616b6564204554482e000000000000000000000000000000000000600082015250565b6000610fd4600e83610efb565b9150610fdf82610f9e565b602082019050919050565b6000602082019050818103600083015261100381610fc7565b9050919050565b7f4e487b7100000000000000000000000000000000000000000000000000000000600052601160045260246000fd5b600061104482610da1565b915061104f83610da1565b925082820261105d81610da1565b915082820484148315176110745761107361100a565b5b5092915050565b60006060820190506110906000830186610e78565b61109d6020830185610e78565b6110aa6040830184610dab565b949350505050565b60008115159050919050565b6110c7816110b2565b81146110d257600080fd5b50565b6000815190506110e4816110be565b92915050565b600060208284031215611100576110ff610d11565b5b600061110e848285016110d5565b91505092915050565b600061112282610da1565b915061112d83610da1565b92508282039050818111156111455761114461100a565b5b92915050565b7f416d6f756e74206d7573742062652067726561746572207468616e207a65726f60008201527f2e00000000000000000000000000000000000000000000000000000000000000602082015250565b60006111a7602183610efb565b91506111b28261114b565b604082019050919050565b600060208201905081810360008301526111d68161119a565b9050919050565b60006040820190506111f26000830185610e78565b6111ff6020830184610dab565b9392505050565b600061121182610da1565b915061121c83610da1565b92508282019050808211156112345761123361100a565b5b92915050565b7f4e6f2072657761726420617661696c61626c652e000000000000000000000000600082015250565b6000611270601483610efb565b915061127b8261123a565b602082019050919050565b6000602082019050818103600083015261129f81611263565b9050919050565b7f4e487b7100000000000000000000000000000000000000000000000000000000600052601260045260246000fd5b60006112e082610da1565b91506112eb83610da1565b9250826112fb576112fa6112a6565b5b82820490509291505056fea2646970667358221220570bfab168eadfcc48e50c038515b645bbe235121c353b926643dfafeabef2c864736f6c63430008180033",
  "linkReferences": {},
  "deployedLinkReferences": {}
}