{
  "_format": "hh-sol-artifact-1",
  "contractName": "StakingContract",
  "sourceName": "contracts/Stake/stake.sol",
  "abi": [
    {
      "inputs": [
        {
          "internalType": "address",
          "name": "_crvToken",
          "type": "address"
        },
        {
          "internalType": "uint256",
          "name": "_rewardRate",
          "type": "uint256"
        }
      ],
      "stateMutability": "nonpayable",
      "type": "constructor"
    },
    {
      "anonymous": false,
      "inputs": [
        {
          "indexed": true,
          "internalType": "address",
          "name": "account",
          "type": "address"
        },
        {
          "indexed": false,
          "internalType": "uint256",
          "name": "amount",
          "type": "uint256"
        }
      ],
      "name": "RewardClaimed",
      "type": "event"
    },
    {
      "anonymous": false,
      "inputs": [
        {
          "indexed": true,
          "internalType": "address",
          "name": "account",
          "type": "address"
        },
        {
          "indexed": false,
          "internalType": "uint256",
          "name": "amount",
          "type": "uint256"
        }
      ],
      "name": "Staked",
      "type": "event"
    },
    {
      "anonymous": false,
      "inputs": [
        {
          "indexed": true,
          "internalType": "address",
          "name": "account",
          "type": "address"
        },
        {
          "indexed": false,
          "internalType": "uint256",
          "name": "amount",
          "type": "uint256"
        }
      ],
      "name": "Unstaked",
      "type": "event"
    },
    {
      "inputs": [],
      "name": "ONE_WEEK",
      "outputs": [
        {
          "internalType": "uint256",
          "name": "",
          "type": "uint256"
        }
      ],
      "stateMutability": "view",
      "type": "function"
    },
    {
      "inputs": [
        {
          "internalType": "address",
          "name": "account",
          "type": "address"
        }
      ],
      "name": "calculateReward",
      "outputs": [
        {
          "internalType": "uint256",
          "name": "",
          "type": "uint256"
        }
      ],
      "stateMutability": "view",
      "type": "function"
    },
    {
      "inputs": [],
      "name": "claimReward",
      "outputs": [],
      "stateMutability": "nonpayable",
      "type": "function"
    },
    {
      "inputs": [],
      "name": "crvToken",
      "outputs": [
        {
          "internalType": "contract IERC20",
          "name": "",
          "type": "address"
        }
      ],
      "stateMutability": "view",
      "type": "function"
    },
    {
      "inputs": [],
      "name": "exchangeRate",
      "outputs": [
        {
          "internalType": "uint256",
          "name": "",
          "type": "uint256"
        }
      ],
      "stateMutability": "view",
      "type": "function"
    },
    {
      "inputs": [],
      "name": "getStakedAmount",
      "outputs": [
        {
          "internalType": "uint256",
          "name": "",
          "type": "uint256"
        }
      ],
      "stateMutability": "view",
      "type": "function"
    },
    {
      "inputs": [],
      "name": "owner",
      "outputs": [
        {
          "internalType": "address",
          "name": "",
          "type": "address"
        }
      ],
      "stateMutability": "view",
      "type": "function"
    },
    {
      "inputs": [],
      "name": "rewardRate",
      "outputs": [
        {
          "internalType": "uint256",
          "name": "",
          "type": "uint256"
        }
      ],
      "stateMutability": "view",
      "type": "function"
    },
    {
      "inputs": [
        {
          "internalType": "address",
          "name": "_owner",
          "type": "address"
        }
      ],
      "name": "setOwner",
      "outputs": [],
      "stateMutability": "nonpayable",
      "type": "function"
    },
    {
      "inputs": [],
      "name": "stake",
      "outputs": [],
      "stateMutability": "payable",
      "type": "function"
    },
    {
      "inputs": [
        {
          "internalType": "address",
          "name": "",
          "type": "address"
        }
      ],
      "name": "stakes",
      "outputs": [
        {
          "internalType": "uint256",
          "name": "amount",
          "type": "uint256"
        },
        {
          "internalType": "uint256",
          "name": "timestamp",
          "type": "uint256"
        }
      ],
      "stateMutability": "view",
      "type": "function"
    },
    {
      "inputs": [],
      "name": "totalStakedETH",
      "outputs": [
        {
          "internalType": "uint256",
          "name": "",
          "type": "uint256"
        }
      ],
      "stateMutability": "view",
      "type": "function"
    },
    {
      "inputs": [],
      "name": "unstake",
      "outputs": [],
      "stateMutability": "nonpayable",
      "type": "function"
    },
    {
      "inputs": [
        {
          "internalType": "uint256",
          "name": "rate",
          "type": "uint256"
        }
      ],
      "name": "updateExchangeRate",
      "outputs": [],
      "stateMutability": "nonpayable",
      "type": "function"
    },
    {
      "inputs": [
        {
          "internalType": "uint256",
          "name": "rate",
          "type": "uint256"
        }
      ],
      "name": "updateRewardRate",
      "outputs": [],
      "stateMutability": "nonpayable",
      "type": "function"
    }
  ],
  "bytecode": "0x60806040523480156200001157600080fd5b50604051620014f3380380620014f3833981810160405281019062000037919062000174565b816000806101000a81548173ffffffffffffffffffffffffffffffffffffffff021916908373ffffffffffffffffffffffffffffffffffffffff160217905550600a6001819055508060028190555033600460006101000a81548173ffffffffffffffffffffffffffffffffffffffff021916908373ffffffffffffffffffffffffffffffffffffffff1602179055505050620001bb565b600080fd5b600073ffffffffffffffffffffffffffffffffffffffff82169050919050565b60006200010182620000d4565b9050919050565b6200011381620000f4565b81146200011f57600080fd5b50565b600081519050620001338162000108565b92915050565b6000819050919050565b6200014e8162000139565b81146200015a57600080fd5b50565b6000815190506200016e8162000143565b92915050565b600080604083850312156200018e576200018d620000cf565b5b60006200019e8582860162000122565b9250506020620001b1858286016200015d565b9150509250929050565b61132880620001cb6000396000f3fe6080604052600436106100e85760003560e01c80638da5cb5b1161008a578063ad73bfd511610059578063ad73bfd5146102a0578063b88a802f146102cb578063b9e205ae146102e2578063d82e39621461030b576100e8565b80638da5cb5b146101f65780638e6f6b77146102215780639ef3a2611461024c578063a4e15db914610275576100e8565b806332d7d66d116100c657806332d7d66d1461016b5780633a4b66f1146101965780633ba0b9a9146101a05780637b0a47ee146101cb576100e8565b806313af4035146100ed57806316934fc4146101165780632def662014610154575b600080fd5b3480156100f957600080fd5b50610114600480360381019061010f9190610d60565b610348565b005b34801561012257600080fd5b5061013d60048036038101906101389190610d60565b61041c565b60405161014b929190610da6565b60405180910390f35b34801561016057600080fd5b50610169610440565b005b34801561017757600080fd5b506101806106e1565b60405161018d9190610e2e565b60405180910390f35b61019e610705565b005b3480156101ac57600080fd5b506101b56108ce565b6040516101c29190610e49565b60405180910390f35b3480156101d757600080fd5b506101e06108d4565b6040516101ed9190610e49565b60405180910390f35b34801561020257600080fd5b5061020b6108da565b6040516102189190610e73565b60405180910390f35b34801561022d57600080fd5b50610236610900565b6040516102439190610e49565b60405180910390f35b34801561025857600080fd5b50610273600480360381019061026e9190610eba565b610907565b005b34801561028157600080fd5b5061028a6109a1565b6040516102979190610e49565b60405180910390f35b3480156102ac57600080fd5b506102b56109eb565b6040516102c29190610e49565b60405180910390f35b3480156102d757600080fd5b506102e06109f1565b005b3480156102ee57600080fd5b5061030960048036038101906103049190610eba565b610b78565b005b34801561031757600080fd5b50610332600480360381019061032d9190610d60565b610c12565b60405161033f9190610e49565b60405180910390f35b3373ffffffffffffffffffffffffffffffffffffffff16600460009054906101000a900473ffffffffffffffffffffffffffffffffffffffff1673ffffffffffffffffffffffffffffffffffffffff16146103d8576040517f08c379a00000000000000000000000000000000000000000000000000000000081526004016103cf90610f6a565b60405180910390fd5b80600460006101000a81548173ffffffffffffffffffffffffffffffffffffffff021916908373ffffffffffffffffffffffffffffffffffffffff16021790555050565b60056020528060005260406000206000915090508060000154908060010154905082565b6000600560003373ffffffffffffffffffffffffffffffffffffffff1673ffffffffffffffffffffffffffffffffffffffff168152602001908152602001600020905060008160000154116104ca576040517f08c379a00000000000000000000000000000000000000000000000000000000081526004016104c190610fd6565b60405180910390fd5b60008160000154905060006104de33610c12565b9050600560003373ffffffffffffffffffffffffffffffffffffffff1673ffffffffffffffffffffffffffffffffffffffff1681526020019081526020016000206000808201600090556001820160009055505060008054906101000a900473ffffffffffffffffffffffffffffffffffffffff1673ffffffffffffffffffffffffffffffffffffffff166323b872dd33306001548661057e9190611025565b6040518463ffffffff1660e01b815260040161059c93929190611067565b6020604051808303816000875af11580156105bb573d6000803e3d6000fd5b505050506040513d601f19601f820116820180604052508101906105df91906110d6565b503373ffffffffffffffffffffffffffffffffffffffff166108fc839081150290604051600060405180830381858888f19350505050158015610626573d6000803e3d6000fd5b5081600360008282546106399190611103565b925050819055503373ffffffffffffffffffffffffffffffffffffffff167f0f5bb82176feb1b5e747e28471aa92156a04d9f3ab9f45f28e2d704232b93f75836040516106869190610e49565b60405180910390a23373ffffffffffffffffffffffffffffffffffffffff167f106f923f993c2149d49b4255ff723acafa1f2d94393f561d3eda32ae348f7241826040516106d49190610e49565b60405180910390a2505050565b60008054906101000a900473ffffffffffffffffffffffffffffffffffffffff1681565b60003411610748576040517f08c379a000000000000000000000000000000000000000000000000000000000815260040161073f906111a9565b60405180910390fd5b600034905060008054906101000a900473ffffffffffffffffffffffffffffffffffffffff1673ffffffffffffffffffffffffffffffffffffffff1663a9059cbb33600154846107989190611025565b6040518363ffffffff1660e01b81526004016107b59291906111c9565b6020604051808303816000875af11580156107d4573d6000803e3d6000fd5b505050506040513d601f19601f820116820180604052508101906107f891906110d6565b50806003600082825461080b91906111f2565b92505081905550604051806040016040528082815260200142815250600560003373ffffffffffffffffffffffffffffffffffffffff1673ffffffffffffffffffffffffffffffffffffffff16815260200190815260200160002060008201518160000155602082015181600101559050503373ffffffffffffffffffffffffffffffffffffffff167f9e71bc8eea02a63969f509818f2dafb9254532904319f9dbda79b67bd34a5f3d826040516108c39190610e49565b60405180910390a250565b60015481565b60025481565b600460009054906101000a900473ffffffffffffffffffffffffffffffffffffffff1681565b62093a8081565b3373ffffffffffffffffffffffffffffffffffffffff16600460009054906101000a900473ffffffffffffffffffffffffffffffffffffffff1673ffffffffffffffffffffffffffffffffffffffff1614610997576040517f08c379a000000000000000000000000000000000000000000000000000000000815260040161098e90610f6a565b60405180910390fd5b8060028190555050565b6000600560003373ffffffffffffffffffffffffffffffffffffffff1673ffffffffffffffffffffffffffffffffffffffff16815260200190815260200160002060000154905090565b60035481565b60006109fc33610c12565b905060008111610a41576040517f08c379a0000000000000000000000000000000000000000000000000000000008152600401610a3890611272565b60405180910390fd5b42600560003373ffffffffffffffffffffffffffffffffffffffff1673ffffffffffffffffffffffffffffffffffffffff1681526020019081526020016000206001018190555060008054906101000a900473ffffffffffffffffffffffffffffffffffffffff1673ffffffffffffffffffffffffffffffffffffffff1663a9059cbb33836040518363ffffffff1660e01b8152600401610ae39291906111c9565b6020604051808303816000875af1158015610b02573d6000803e3d6000fd5b505050506040513d601f19601f82011682018060405250810190610b2691906110d6565b503373ffffffffffffffffffffffffffffffffffffffff167f106f923f993c2149d49b4255ff723acafa1f2d94393f561d3eda32ae348f724182604051610b6d9190610e49565b60405180910390a250565b3373ffffffffffffffffffffffffffffffffffffffff16600460009054906101000a900473ffffffffffffffffffffffffffffffffffffffff1673ffffffffffffffffffffffffffffffffffffffff1614610c08576040517f08c379a0000000000000000000000000000000000000000000000000000000008152600401610bff90610f6a565b60405180910390fd5b8060018190555050565b600080600560008473ffffffffffffffffffffffffffffffffffffffff1673ffffffffffffffffffffffffffffffffffffffff16815260200190815260200160002090506000816000015411610c9d576040517f08c379a0000000000000000000000000000000000000000000000000000000008152600401610c9490610fd6565b60405180910390fd5b6000816001015442610caf9190611103565b9050600062093a8082600254610cc59190611025565b610ccf91906112c1565b905060006064828560000154610ce59190611025565b610cef91906112c1565b905080945050505050919050565b600080fd5b600073ffffffffffffffffffffffffffffffffffffffff82169050919050565b6000610d2d82610d02565b9050919050565b610d3d81610d22565b8114610d4857600080fd5b50565b600081359050610d5a81610d34565b92915050565b600060208284031215610d7657610d75610cfd565b5b6000610d8484828501610d4b565b91505092915050565b6000819050919050565b610da081610d8d565b82525050565b6000604082019050610dbb6000830185610d97565b610dc86020830184610d97565b9392505050565b6000819050919050565b6000610df4610def610dea84610d02565b610dcf565b610d02565b9050919050565b6000610e0682610dd9565b9050919050565b6000610e1882610dfb565b9050919050565b610e2881610e0d565b82525050565b6000602082019050610e436000830184610e1f565b92915050565b6000602082019050610e5e6000830184610d97565b92915050565b610e6d81610d22565b82525050565b6000602082019050610e886000830184610e64565b92915050565b610e9781610d8d565b8114610ea257600080fd5b50565b600081359050610eb481610e8e565b92915050565b600060208284031215610ed057610ecf610cfd565b5b6000610ede84828501610ea5565b91505092915050565b600082825260208201905092915050565b7f4f6e6c792074686520636f6e7472616374206f776e65722063616e2063616c6c60008201527f20746869732066756e6374696f6e2e0000000000000000000000000000000000602082015250565b6000610f54602f83610ee7565b9150610f5f82610ef8565b604082019050919050565b60006020820190508181036000830152610f8381610f47565b9050919050565b7f4e6f207374616b6564204554482e000000000000000000000000000000000000600082015250565b6000610fc0600e83610ee7565b9150610fcb82610f8a565b602082019050919050565b60006020820190508181036000830152610fef81610fb3565b9050919050565b7f4e487b7100000000000000000000000000000000000000000000000000000000600052601160045260246000fd5b600061103082610d8d565b915061103b83610d8d565b925082820261104981610d8d565b915082820484148315176110605761105f610ff6565b5b5092915050565b600060608201905061107c6000830186610e64565b6110896020830185610e64565b6110966040830184610d97565b949350505050565b60008115159050919050565b6110b38161109e565b81146110be57600080fd5b50565b6000815190506110d0816110aa565b92915050565b6000602082840312156110ec576110eb610cfd565b5b60006110fa848285016110c1565b91505092915050565b600061110e82610d8d565b915061111983610d8d565b925082820390508181111561113157611130610ff6565b5b92915050565b7f416d6f756e74206d7573742062652067726561746572207468616e207a65726f60008201527f2e00000000000000000000000000000000000000000000000000000000000000602082015250565b6000611193602183610ee7565b915061119e82611137565b604082019050919050565b600060208201905081810360008301526111c281611186565b9050919050565b60006040820190506111de6000830185610e64565b6111eb6020830184610d97565b9392505050565b60006111fd82610d8d565b915061120883610d8d565b92508282019050808211156112205761121f610ff6565b5b92915050565b7f4e6f2072657761726420617661696c61626c652e000000000000000000000000600082015250565b600061125c601483610ee7565b915061126782611226565b602082019050919050565b6000602082019050818103600083015261128b8161124f565b9050919050565b7f4e487b7100000000000000000000000000000000000000000000000000000000600052601260045260246000fd5b60006112cc82610d8d565b91506112d783610d8d565b9250826112e7576112e6611292565b5b82820490509291505056fea2646970667358221220f1ad9575516851f4d1c4ccd702929286cfa2eb65287e96f1623e96f6c426f96064736f6c63430008180033",
  "linkReferences": {},
  "deployedLinkReferences": {}
}