{
  "_format": "hh-sol-artifact-1",
  "contractName": "StakingContract",
  "sourceName": "contracts/Stake/stake.sol",
  "abi": [
    {
      "inputs": [
        {
          "internalType": "address",
          "name": "_crvToken",
          "type": "address"
        },
        {
          "internalType": "address",
          "name": "_veToken",
          "type": "address"
        }
      ],
      "stateMutability": "nonpayable",
      "type": "constructor"
    },
    {
      "inputs": [],
      "name": "crvToken",
      "outputs": [
        {
          "internalType": "contract ICrvToken",
          "name": "",
          "type": "address"
        }
      ],
      "stateMutability": "view",
      "type": "function"
    },
    {
      "inputs": [
        {
          "internalType": "address",
          "name": "account",
          "type": "address"
        }
      ],
      "name": "getStakedAmount",
      "outputs": [
        {
          "internalType": "uint256",
          "name": "",
          "type": "uint256"
        }
      ],
      "stateMutability": "view",
      "type": "function"
    },
    {
      "inputs": [
        {
          "internalType": "uint256",
          "name": "amount",
          "type": "uint256"
        }
      ],
      "name": "stake",
      "outputs": [],
      "stateMutability": "nonpayable",
      "type": "function"
    },
    {
      "inputs": [
        {
          "internalType": "uint256",
          "name": "amount",
          "type": "uint256"
        }
      ],
      "name": "unstake",
      "outputs": [],
      "stateMutability": "nonpayable",
      "type": "function"
    },
    {
      "inputs": [],
      "name": "veToken",
      "outputs": [
        {
          "internalType": "contract IVeToken",
          "name": "",
          "type": "address"
        }
      ],
      "stateMutability": "view",
      "type": "function"
    }
  ],
  "bytecode": "0x608060405234801561001057600080fd5b5060405162000eb538038062000eb58339818101604052810190610034919061011f565b816000806101000a81548173ffffffffffffffffffffffffffffffffffffffff021916908373ffffffffffffffffffffffffffffffffffffffff16021790555080600160006101000a81548173ffffffffffffffffffffffffffffffffffffffff021916908373ffffffffffffffffffffffffffffffffffffffff160217905550505061015f565b600080fd5b600073ffffffffffffffffffffffffffffffffffffffff82169050919050565b60006100ec826100c1565b9050919050565b6100fc816100e1565b811461010757600080fd5b50565b600081519050610119816100f3565b92915050565b60008060408385031215610136576101356100bc565b5b60006101448582860161010a565b92505060206101558582860161010a565b9150509250929050565b610d46806200016f6000396000f3fe608060405234801561001057600080fd5b50600436106100575760003560e01c80632e17de781461005c57806332d7d66d146100785780633b92eb23146100965780634da6a556146100b4578063a694fc3a146100e4575b600080fd5b610076600480360381019061007191906107c6565b610100565b005b610080610360565b60405161008d9190610872565b60405180910390f35b61009e610384565b6040516100ab91906108ae565b60405180910390f35b6100ce60048036038101906100c99190610907565b6103aa565b6040516100db9190610943565b60405180910390f35b6100fe60048036038101906100f991906107c6565b6103f3565b005b60008111610143576040517f08c379a000000000000000000000000000000000000000000000000000000000815260040161013a906109bb565b60405180910390fd5b80600260003373ffffffffffffffffffffffffffffffffffffffff1673ffffffffffffffffffffffffffffffffffffffff1681526020019081526020016000205410156101c5576040517f08c379a00000000000000000000000000000000000000000000000000000000081526004016101bc90610a27565b60405180910390fd5b80600260003373ffffffffffffffffffffffffffffffffffffffff1673ffffffffffffffffffffffffffffffffffffffff16815260200190815260200160002060008282546102149190610a76565b92505081905550600160009054906101000a900473ffffffffffffffffffffffffffffffffffffffff1673ffffffffffffffffffffffffffffffffffffffff166323b872dd3330846040518463ffffffff1660e01b815260040161027a93929190610ab9565b6020604051808303816000875af1158015610299573d6000803e3d6000fd5b505050506040513d601f19601f820116820180604052508101906102bd9190610b28565b5060008054906101000a900473ffffffffffffffffffffffffffffffffffffffff1673ffffffffffffffffffffffffffffffffffffffff1663a9059cbb33836040518363ffffffff1660e01b8152600401610319929190610b55565b6020604051808303816000875af1158015610338573d6000803e3d6000fd5b505050506040513d601f19601f8201168201806040525081019061035c9190610b28565b5050565b60008054906101000a900473ffffffffffffffffffffffffffffffffffffffff1681565b600160009054906101000a900473ffffffffffffffffffffffffffffffffffffffff1681565b6000600260008373ffffffffffffffffffffffffffffffffffffffff1673ffffffffffffffffffffffffffffffffffffffff168152602001908152602001600020549050919050565b60008111610436576040517f08c379a000000000000000000000000000000000000000000000000000000000815260040161042d906109bb565b60405180910390fd5b8060008054906101000a900473ffffffffffffffffffffffffffffffffffffffff1673ffffffffffffffffffffffffffffffffffffffff166370a08231336040518263ffffffff1660e01b81526004016104909190610b7e565b602060405180830381865afa1580156104ad573d6000803e3d6000fd5b505050506040513d601f19601f820116820180604052508101906104d19190610bae565b1015610512576040517f08c379a000000000000000000000000000000000000000000000000000000000815260040161050990610c27565b60405180910390fd5b8060008054906101000a900473ffffffffffffffffffffffffffffffffffffffff1673ffffffffffffffffffffffffffffffffffffffff1663dd62ed3e33306040518363ffffffff1660e01b815260040161056e929190610c47565b602060405180830381865afa15801561058b573d6000803e3d6000fd5b505050506040513d601f19601f820116820180604052508101906105af9190610bae565b10156105f0576040517f08c379a00000000000000000000000000000000000000000000000000000000081526004016105e790610cbc565b60405180910390fd5b60008054906101000a900473ffffffffffffffffffffffffffffffffffffffff1673ffffffffffffffffffffffffffffffffffffffff166323b872dd3330846040518463ffffffff1660e01b815260040161064d93929190610ab9565b6020604051808303816000875af115801561066c573d6000803e3d6000fd5b505050506040513d601f19601f820116820180604052508101906106909190610b28565b5080600260003373ffffffffffffffffffffffffffffffffffffffff1673ffffffffffffffffffffffffffffffffffffffff16815260200190815260200160002060008282546106e09190610cdc565b92505081905550600160009054906101000a900473ffffffffffffffffffffffffffffffffffffffff1673ffffffffffffffffffffffffffffffffffffffff1663a9059cbb33836040518363ffffffff1660e01b8152600401610744929190610b55565b6020604051808303816000875af1158015610763573d6000803e3d6000fd5b505050506040513d601f19601f820116820180604052508101906107879190610b28565b5050565b600080fd5b6000819050919050565b6107a381610790565b81146107ae57600080fd5b50565b6000813590506107c08161079a565b92915050565b6000602082840312156107dc576107db61078b565b5b60006107ea848285016107b1565b91505092915050565b600073ffffffffffffffffffffffffffffffffffffffff82169050919050565b6000819050919050565b600061083861083361082e846107f3565b610813565b6107f3565b9050919050565b600061084a8261081d565b9050919050565b600061085c8261083f565b9050919050565b61086c81610851565b82525050565b60006020820190506108876000830184610863565b92915050565b60006108988261083f565b9050919050565b6108a88161088d565b82525050565b60006020820190506108c3600083018461089f565b92915050565b60006108d4826107f3565b9050919050565b6108e4816108c9565b81146108ef57600080fd5b50565b600081359050610901816108db565b92915050565b60006020828403121561091d5761091c61078b565b5b600061092b848285016108f2565b91505092915050565b61093d81610790565b82525050565b60006020820190506109586000830184610934565b92915050565b600082825260208201905092915050565b7f416d6f756e74206d7573742062652067726561746572207468616e207a65726f600082015250565b60006109a560208361095e565b91506109b08261096f565b602082019050919050565b600060208201905081810360008301526109d481610998565b9050919050565b7f496e73756666696369656e74207374616b656420616d6f756e74000000000000600082015250565b6000610a11601a8361095e565b9150610a1c826109db565b602082019050919050565b60006020820190508181036000830152610a4081610a04565b9050919050565b7f4e487b7100000000000000000000000000000000000000000000000000000000600052601160045260246000fd5b6000610a8182610790565b9150610a8c83610790565b9250828203905081811115610aa457610aa3610a47565b5b92915050565b610ab3816108c9565b82525050565b6000606082019050610ace6000830186610aaa565b610adb6020830185610aaa565b610ae86040830184610934565b949350505050565b60008115159050919050565b610b0581610af0565b8114610b1057600080fd5b50565b600081519050610b2281610afc565b92915050565b600060208284031215610b3e57610b3d61078b565b5b6000610b4c84828501610b13565b91505092915050565b6000604082019050610b6a6000830185610aaa565b610b776020830184610934565b9392505050565b6000602082019050610b936000830184610aaa565b92915050565b600081519050610ba88161079a565b92915050565b600060208284031215610bc457610bc361078b565b5b6000610bd284828501610b99565b91505092915050565b7f496e73756666696369656e74204352562062616c616e63650000000000000000600082015250565b6000610c1160188361095e565b9150610c1c82610bdb565b602082019050919050565b60006020820190508181036000830152610c4081610c04565b9050919050565b6000604082019050610c5c6000830185610aaa565b610c696020830184610aaa565b9392505050565b7f496e73756666696369656e742043525620616c6c6f77616e6365000000000000600082015250565b6000610ca6601a8361095e565b9150610cb182610c70565b602082019050919050565b60006020820190508181036000830152610cd581610c99565b9050919050565b6000610ce782610790565b9150610cf283610790565b9250828201905080821115610d0a57610d09610a47565b5b9291505056fea2646970667358221220c54ac46591799eae7b052ae2c10f025339082afe2c591f3c0bcd4d72e5047fc164736f6c63430008180033",
  "linkReferences": {},
  "deployedLinkReferences": {}
}