{
  "_format": "hh-sol-artifact-1",
  "contractName": "USDTStakingContract",
  "sourceName": "contracts/Stake/usdt-crv-stake.sol",
  "abi": [
    {
      "inputs": [
        {
          "internalType": "address",
          "name": "_usdtToken",
          "type": "address"
        },
        {
          "internalType": "address",
          "name": "_crvToken",
          "type": "address"
        },
        {
          "internalType": "uint256",
          "name": "_rewardRate",
          "type": "uint256"
        }
      ],
      "stateMutability": "nonpayable",
      "type": "constructor"
    },
    {
      "anonymous": false,
      "inputs": [
        {
          "indexed": true,
          "internalType": "address",
          "name": "account",
          "type": "address"
        },
        {
          "indexed": false,
          "internalType": "uint256",
          "name": "crvAmount",
          "type": "uint256"
        }
      ],
      "name": "RewardClaimed",
      "type": "event"
    },
    {
      "anonymous": false,
      "inputs": [
        {
          "indexed": true,
          "internalType": "address",
          "name": "account",
          "type": "address"
        },
        {
          "indexed": false,
          "internalType": "uint256",
          "name": "usdtAmount",
          "type": "uint256"
        }
      ],
      "name": "Staked",
      "type": "event"
    },
    {
      "anonymous": false,
      "inputs": [
        {
          "indexed": true,
          "internalType": "address",
          "name": "account",
          "type": "address"
        },
        {
          "indexed": false,
          "internalType": "uint256",
          "name": "usdtAmount",
          "type": "uint256"
        }
      ],
      "name": "Unstaked",
      "type": "event"
    },
    {
      "inputs": [],
      "name": "ONE_WEEK",
      "outputs": [
        {
          "internalType": "uint256",
          "name": "",
          "type": "uint256"
        }
      ],
      "stateMutability": "view",
      "type": "function"
    },
    {
      "inputs": [
        {
          "internalType": "address",
          "name": "account",
          "type": "address"
        }
      ],
      "name": "calculateReward",
      "outputs": [
        {
          "internalType": "uint256",
          "name": "",
          "type": "uint256"
        }
      ],
      "stateMutability": "view",
      "type": "function"
    },
    {
      "inputs": [],
      "name": "claimReward",
      "outputs": [],
      "stateMutability": "nonpayable",
      "type": "function"
    },
    {
      "inputs": [],
      "name": "crvToken",
      "outputs": [
        {
          "internalType": "contract IERC20",
          "name": "",
          "type": "address"
        }
      ],
      "stateMutability": "view",
      "type": "function"
    },
    {
      "inputs": [],
      "name": "exchangeRate",
      "outputs": [
        {
          "internalType": "uint256",
          "name": "",
          "type": "uint256"
        }
      ],
      "stateMutability": "view",
      "type": "function"
    },
    {
      "inputs": [],
      "name": "owner",
      "outputs": [
        {
          "internalType": "address",
          "name": "",
          "type": "address"
        }
      ],
      "stateMutability": "view",
      "type": "function"
    },
    {
      "inputs": [],
      "name": "rewardRate",
      "outputs": [
        {
          "internalType": "uint256",
          "name": "",
          "type": "uint256"
        }
      ],
      "stateMutability": "view",
      "type": "function"
    },
    {
      "inputs": [
        {
          "internalType": "address",
          "name": "_owner",
          "type": "address"
        }
      ],
      "name": "setOwner",
      "outputs": [],
      "stateMutability": "nonpayable",
      "type": "function"
    },
    {
      "inputs": [
        {
          "internalType": "uint256",
          "name": "usdtAmount",
          "type": "uint256"
        }
      ],
      "name": "stake",
      "outputs": [],
      "stateMutability": "nonpayable",
      "type": "function"
    },
    {
      "inputs": [
        {
          "internalType": "address",
          "name": "",
          "type": "address"
        }
      ],
      "name": "stakes",
      "outputs": [
        {
          "internalType": "uint256",
          "name": "usdtAmount",
          "type": "uint256"
        },
        {
          "internalType": "uint256",
          "name": "timestamp",
          "type": "uint256"
        }
      ],
      "stateMutability": "view",
      "type": "function"
    },
    {
      "inputs": [],
      "name": "totalStakedUSDT",
      "outputs": [
        {
          "internalType": "uint256",
          "name": "",
          "type": "uint256"
        }
      ],
      "stateMutability": "view",
      "type": "function"
    },
    {
      "inputs": [],
      "name": "unstake",
      "outputs": [],
      "stateMutability": "nonpayable",
      "type": "function"
    },
    {
      "inputs": [
        {
          "internalType": "uint256",
          "name": "rate",
          "type": "uint256"
        }
      ],
      "name": "updateRewardRate",
      "outputs": [],
      "stateMutability": "nonpayable",
      "type": "function"
    },
    {
      "inputs": [],
      "name": "usdtToken",
      "outputs": [
        {
          "internalType": "contract IERC20",
          "name": "",
          "type": "address"
        }
      ],
      "stateMutability": "view",
      "type": "function"
    }
  ],
  "bytecode": "0x60806040523480156200001157600080fd5b50604051620014c8380380620014c88339818101604052810190620000379190620001b6565b826000806101000a81548173ffffffffffffffffffffffffffffffffffffffff021916908373ffffffffffffffffffffffffffffffffffffffff16021790555081600160006101000a81548173ffffffffffffffffffffffffffffffffffffffff021916908373ffffffffffffffffffffffffffffffffffffffff16021790555060016002819055508060038190555033600560006101000a81548173ffffffffffffffffffffffffffffffffffffffff021916908373ffffffffffffffffffffffffffffffffffffffff16021790555050505062000212565b600080fd5b600073ffffffffffffffffffffffffffffffffffffffff82169050919050565b6000620001438262000116565b9050919050565b620001558162000136565b81146200016157600080fd5b50565b60008151905062000175816200014a565b92915050565b6000819050919050565b62000190816200017b565b81146200019c57600080fd5b50565b600081519050620001b08162000185565b92915050565b600080600060608486031215620001d257620001d162000111565b5b6000620001e28682870162000164565b9350506020620001f58682870162000164565b925050604062000208868287016200019f565b9150509250925092565b6112a680620002226000396000f3fe608060405234801561001057600080fd5b50600436106100ea5760003560e01c80638da5cb5b1161008c578063a694fc3a11610066578063a694fc3a14610216578063a98ad46c14610232578063b88a802f14610250578063d82e39621461025a576100ea565b80638da5cb5b146101be5780638e6f6b77146101dc5780639ef3a261146101fa576100ea565b806332d7d66d116100c857806332d7d66d146101465780633ba0b9a91461016457806373f86edd146101825780637b0a47ee146101a0576100ea565b806313af4035146100ef57806316934fc41461010b5780632def66201461013c575b600080fd5b61010960048036038101906101049190610cde565b61028a565b005b61012560048036038101906101209190610cde565b61035e565b604051610133929190610d24565b60405180910390f35b610144610382565b005b61014e61067d565b60405161015b9190610dac565b60405180910390f35b61016c6106a3565b6040516101799190610dc7565b60405180910390f35b61018a6106a9565b6040516101979190610dc7565b60405180910390f35b6101a86106af565b6040516101b59190610dc7565b60405180910390f35b6101c66106b5565b6040516101d39190610df1565b60405180910390f35b6101e46106db565b6040516101f19190610dc7565b60405180910390f35b610214600480360381019061020f9190610e38565b6106e2565b005b610230600480360381019061022b9190610e38565b61077c565b005b61023a6109e3565b6040516102479190610dac565b60405180910390f35b610258610a07565b005b610274600480360381019061026f9190610cde565b610b90565b6040516102819190610dc7565b60405180910390f35b3373ffffffffffffffffffffffffffffffffffffffff16600560009054906101000a900473ffffffffffffffffffffffffffffffffffffffff1673ffffffffffffffffffffffffffffffffffffffff161461031a576040517f08c379a000000000000000000000000000000000000000000000000000000000815260040161031190610ee8565b60405180910390fd5b80600560006101000a81548173ffffffffffffffffffffffffffffffffffffffff021916908373ffffffffffffffffffffffffffffffffffffffff16021790555050565b60066020528060005260406000206000915090508060000154908060010154905082565b6000600660003373ffffffffffffffffffffffffffffffffffffffff1673ffffffffffffffffffffffffffffffffffffffff1681526020019081526020016000209050600081600001541161040c576040517f08c379a000000000000000000000000000000000000000000000000000000000815260040161040390610f54565b60405180910390fd5b600081600001549050600061042033610b90565b9050600660003373ffffffffffffffffffffffffffffffffffffffff1673ffffffffffffffffffffffffffffffffffffffff16815260200190815260200160002060008082016000905560018201600090555050600160009054906101000a900473ffffffffffffffffffffffffffffffffffffffff1673ffffffffffffffffffffffffffffffffffffffff166323b872dd3330600254866104c29190610fa3565b6040518463ffffffff1660e01b81526004016104e093929190610fe5565b6020604051808303816000875af11580156104ff573d6000803e3d6000fd5b505050506040513d601f19601f820116820180604052508101906105239190611054565b5060008054906101000a900473ffffffffffffffffffffffffffffffffffffffff1673ffffffffffffffffffffffffffffffffffffffff1663a9059cbb33846040518363ffffffff1660e01b815260040161057f929190611081565b6020604051808303816000875af115801561059e573d6000803e3d6000fd5b505050506040513d601f19601f820116820180604052508101906105c29190611054565b5081600460008282546105d591906110aa565b925050819055503373ffffffffffffffffffffffffffffffffffffffff167f0f5bb82176feb1b5e747e28471aa92156a04d9f3ab9f45f28e2d704232b93f75836040516106229190610dc7565b60405180910390a23373ffffffffffffffffffffffffffffffffffffffff167f106f923f993c2149d49b4255ff723acafa1f2d94393f561d3eda32ae348f7241826040516106709190610dc7565b60405180910390a2505050565b600160009054906101000a900473ffffffffffffffffffffffffffffffffffffffff1681565b60025481565b60045481565b60035481565b600560009054906101000a900473ffffffffffffffffffffffffffffffffffffffff1681565b62093a8081565b3373ffffffffffffffffffffffffffffffffffffffff16600560009054906101000a900473ffffffffffffffffffffffffffffffffffffffff1673ffffffffffffffffffffffffffffffffffffffff1614610772576040517f08c379a000000000000000000000000000000000000000000000000000000000815260040161076990610ee8565b60405180910390fd5b8060038190555050565b600081116107bf576040517f08c379a00000000000000000000000000000000000000000000000000000000081526004016107b690611150565b60405180910390fd5b60008054906101000a900473ffffffffffffffffffffffffffffffffffffffff1673ffffffffffffffffffffffffffffffffffffffff166323b872dd3330846040518463ffffffff1660e01b815260040161081c93929190610fe5565b6020604051808303816000875af115801561083b573d6000803e3d6000fd5b505050506040513d601f19601f8201168201806040525081019061085f9190611054565b5080600460008282546108729190611170565b92505081905550600160009054906101000a900473ffffffffffffffffffffffffffffffffffffffff1673ffffffffffffffffffffffffffffffffffffffff1663a9059cbb33600254846108c69190610fa3565b6040518363ffffffff1660e01b81526004016108e3929190611081565b6020604051808303816000875af1158015610902573d6000803e3d6000fd5b505050506040513d601f19601f820116820180604052508101906109269190611054565b50604051806040016040528082815260200142815250600660003373ffffffffffffffffffffffffffffffffffffffff1673ffffffffffffffffffffffffffffffffffffffff16815260200190815260200160002060008201518160000155602082015181600101559050503373ffffffffffffffffffffffffffffffffffffffff167f9e71bc8eea02a63969f509818f2dafb9254532904319f9dbda79b67bd34a5f3d826040516109d89190610dc7565b60405180910390a250565b60008054906101000a900473ffffffffffffffffffffffffffffffffffffffff1681565b6000610a1233610b90565b905060008111610a57576040517f08c379a0000000000000000000000000000000000000000000000000000000008152600401610a4e906111f0565b60405180910390fd5b42600660003373ffffffffffffffffffffffffffffffffffffffff1673ffffffffffffffffffffffffffffffffffffffff16815260200190815260200160002060010181905550600160009054906101000a900473ffffffffffffffffffffffffffffffffffffffff1673ffffffffffffffffffffffffffffffffffffffff1663a9059cbb33836040518363ffffffff1660e01b8152600401610afb929190611081565b6020604051808303816000875af1158015610b1a573d6000803e3d6000fd5b505050506040513d601f19601f82011682018060405250810190610b3e9190611054565b503373ffffffffffffffffffffffffffffffffffffffff167f106f923f993c2149d49b4255ff723acafa1f2d94393f561d3eda32ae348f724182604051610b859190610dc7565b60405180910390a250565b600080600660008473ffffffffffffffffffffffffffffffffffffffff1673ffffffffffffffffffffffffffffffffffffffff16815260200190815260200160002090506000816000015411610c1b576040517f08c379a0000000000000000000000000000000000000000000000000000000008152600401610c1290610f54565b60405180910390fd5b6000816001015442610c2d91906110aa565b9050600062093a8082600354610c439190610fa3565b610c4d919061123f565b905060006064828560000154610c639190610fa3565b610c6d919061123f565b905080945050505050919050565b600080fd5b600073ffffffffffffffffffffffffffffffffffffffff82169050919050565b6000610cab82610c80565b9050919050565b610cbb81610ca0565b8114610cc657600080fd5b50565b600081359050610cd881610cb2565b92915050565b600060208284031215610cf457610cf3610c7b565b5b6000610d0284828501610cc9565b91505092915050565b6000819050919050565b610d1e81610d0b565b82525050565b6000604082019050610d396000830185610d15565b610d466020830184610d15565b9392505050565b6000819050919050565b6000610d72610d6d610d6884610c80565b610d4d565b610c80565b9050919050565b6000610d8482610d57565b9050919050565b6000610d9682610d79565b9050919050565b610da681610d8b565b82525050565b6000602082019050610dc16000830184610d9d565b92915050565b6000602082019050610ddc6000830184610d15565b92915050565b610deb81610ca0565b82525050565b6000602082019050610e066000830184610de2565b92915050565b610e1581610d0b565b8114610e2057600080fd5b50565b600081359050610e3281610e0c565b92915050565b600060208284031215610e4e57610e4d610c7b565b5b6000610e5c84828501610e23565b91505092915050565b600082825260208201905092915050565b7f4f6e6c792074686520636f6e7472616374206f776e65722063616e2063616c6c60008201527f20746869732066756e6374696f6e2e0000000000000000000000000000000000602082015250565b6000610ed2602f83610e65565b9150610edd82610e76565b604082019050919050565b60006020820190508181036000830152610f0181610ec5565b9050919050565b7f4e6f207374616b656420555344542e0000000000000000000000000000000000600082015250565b6000610f3e600f83610e65565b9150610f4982610f08565b602082019050919050565b60006020820190508181036000830152610f6d81610f31565b9050919050565b7f4e487b7100000000000000000000000000000000000000000000000000000000600052601160045260246000fd5b6000610fae82610d0b565b9150610fb983610d0b565b9250828202610fc781610d0b565b91508282048414831517610fde57610fdd610f74565b5b5092915050565b6000606082019050610ffa6000830186610de2565b6110076020830185610de2565b6110146040830184610d15565b949350505050565b60008115159050919050565b6110318161101c565b811461103c57600080fd5b50565b60008151905061104e81611028565b92915050565b60006020828403121561106a57611069610c7b565b5b60006110788482850161103f565b91505092915050565b60006040820190506110966000830185610de2565b6110a36020830184610d15565b9392505050565b60006110b582610d0b565b91506110c083610d0b565b92508282039050818111156110d8576110d7610f74565b5b92915050565b7f416d6f756e74206d7573742062652067726561746572207468616e207a65726f60008201527f2e00000000000000000000000000000000000000000000000000000000000000602082015250565b600061113a602183610e65565b9150611145826110de565b604082019050919050565b600060208201905081810360008301526111698161112d565b9050919050565b600061117b82610d0b565b915061118683610d0b565b925082820190508082111561119e5761119d610f74565b5b92915050565b7f4e6f2072657761726420617661696c61626c652e000000000000000000000000600082015250565b60006111da601483610e65565b91506111e5826111a4565b602082019050919050565b60006020820190508181036000830152611209816111cd565b9050919050565b7f4e487b7100000000000000000000000000000000000000000000000000000000600052601260045260246000fd5b600061124a82610d0b565b915061125583610d0b565b92508261126557611264611210565b5b82820490509291505056fea264697066735822122080f59d4f3ba91753c549a2d3adf51cfeb9ae17051e5ccf3a2d6d8fb729560d7e64736f6c63430008180033",
  "linkReferences": {},
  "deployedLinkReferences": {}
}