{
  "_format": "hh-sol-artifact-1",
  "contractName": "StakingContract",
  "sourceName": "contracts/Stake/stake.sol",
  "abi": [
    {
      "inputs": [
        {
          "internalType": "address",
          "name": "_crvToken",
          "type": "address"
        },
        {
          "internalType": "uint256",
          "name": "_rewardRate",
          "type": "uint256"
        }
      ],
      "stateMutability": "nonpayable",
      "type": "constructor"
    },
    {
      "anonymous": false,
      "inputs": [
        {
          "indexed": true,
          "internalType": "address",
          "name": "account",
          "type": "address"
        },
        {
          "indexed": false,
          "internalType": "uint256",
          "name": "amount",
          "type": "uint256"
        }
      ],
      "name": "RewardClaimed",
      "type": "event"
    },
    {
      "anonymous": false,
      "inputs": [
        {
          "indexed": true,
          "internalType": "address",
          "name": "account",
          "type": "address"
        },
        {
          "indexed": false,
          "internalType": "uint256",
          "name": "amount",
          "type": "uint256"
        }
      ],
      "name": "Staked",
      "type": "event"
    },
    {
      "anonymous": false,
      "inputs": [
        {
          "indexed": true,
          "internalType": "address",
          "name": "account",
          "type": "address"
        },
        {
          "indexed": false,
          "internalType": "uint256",
          "name": "amount",
          "type": "uint256"
        }
      ],
      "name": "Unstaked",
      "type": "event"
    },
    {
      "inputs": [],
      "name": "ONE_WEEK",
      "outputs": [
        {
          "internalType": "uint256",
          "name": "",
          "type": "uint256"
        }
      ],
      "stateMutability": "view",
      "type": "function"
    },
    {
      "inputs": [
        {
          "internalType": "address",
          "name": "account",
          "type": "address"
        }
      ],
      "name": "calculateReward",
      "outputs": [
        {
          "internalType": "uint256",
          "name": "",
          "type": "uint256"
        }
      ],
      "stateMutability": "view",
      "type": "function"
    },
    {
      "inputs": [],
      "name": "claimReward",
      "outputs": [],
      "stateMutability": "nonpayable",
      "type": "function"
    },
    {
      "inputs": [],
      "name": "crvToken",
      "outputs": [
        {
          "internalType": "contract IERC20",
          "name": "",
          "type": "address"
        }
      ],
      "stateMutability": "view",
      "type": "function"
    },
    {
      "inputs": [],
      "name": "exchangeRate",
      "outputs": [
        {
          "internalType": "uint256",
          "name": "",
          "type": "uint256"
        }
      ],
      "stateMutability": "view",
      "type": "function"
    },
    {
      "inputs": [],
      "name": "owner",
      "outputs": [
        {
          "internalType": "address",
          "name": "",
          "type": "address"
        }
      ],
      "stateMutability": "view",
      "type": "function"
    },
    {
      "inputs": [],
      "name": "rewardRate",
      "outputs": [
        {
          "internalType": "uint256",
          "name": "",
          "type": "uint256"
        }
      ],
      "stateMutability": "view",
      "type": "function"
    },
    {
      "inputs": [
        {
          "internalType": "address",
          "name": "_owner",
          "type": "address"
        }
      ],
      "name": "setOwner",
      "outputs": [],
      "stateMutability": "nonpayable",
      "type": "function"
    },
    {
      "inputs": [],
      "name": "stake",
      "outputs": [],
      "stateMutability": "payable",
      "type": "function"
    },
    {
      "inputs": [
        {
          "internalType": "address",
          "name": "",
          "type": "address"
        }
      ],
      "name": "stakes",
      "outputs": [
        {
          "internalType": "uint256",
          "name": "amount",
          "type": "uint256"
        },
        {
          "internalType": "uint256",
          "name": "timestamp",
          "type": "uint256"
        }
      ],
      "stateMutability": "view",
      "type": "function"
    },
    {
      "inputs": [],
      "name": "totalStakedETH",
      "outputs": [
        {
          "internalType": "uint256",
          "name": "",
          "type": "uint256"
        }
      ],
      "stateMutability": "view",
      "type": "function"
    },
    {
      "inputs": [],
      "name": "unstake",
      "outputs": [],
      "stateMutability": "nonpayable",
      "type": "function"
    },
    {
      "inputs": [
        {
          "internalType": "uint256",
          "name": "rate",
          "type": "uint256"
        }
      ],
      "name": "updateExchangeRate",
      "outputs": [],
      "stateMutability": "nonpayable",
      "type": "function"
    },
    {
      "inputs": [
        {
          "internalType": "uint256",
          "name": "rate",
          "type": "uint256"
        }
      ],
      "name": "updateRewardRate",
      "outputs": [],
      "stateMutability": "nonpayable",
      "type": "function"
    }
  ],
  "bytecode": "0x60806040523480156200001157600080fd5b506040516200147338038062001473833981810160405281019062000037919062000174565b816000806101000a81548173ffffffffffffffffffffffffffffffffffffffff021916908373ffffffffffffffffffffffffffffffffffffffff160217905550600a6001819055508060028190555033600460006101000a81548173ffffffffffffffffffffffffffffffffffffffff021916908373ffffffffffffffffffffffffffffffffffffffff1602179055505050620001bb565b600080fd5b600073ffffffffffffffffffffffffffffffffffffffff82169050919050565b60006200010182620000d4565b9050919050565b6200011381620000f4565b81146200011f57600080fd5b50565b600081519050620001338162000108565b92915050565b6000819050919050565b6200014e8162000139565b81146200015a57600080fd5b50565b6000815190506200016e8162000143565b92915050565b600080604083850312156200018e576200018d620000cf565b5b60006200019e8582860162000122565b9250506020620001b1858286016200015d565b9150509250929050565b6112a880620001cb6000396000f3fe6080604052600436106100dd5760003560e01c80638da5cb5b1161007f578063ad73bfd511610059578063ad73bfd51461026a578063b88a802f14610295578063b9e205ae146102ac578063d82e3962146102d5576100dd565b80638da5cb5b146101eb5780638e6f6b77146102165780639ef3a26114610241576100dd565b806332d7d66d116100bb57806332d7d66d146101605780633a4b66f11461018b5780633ba0b9a9146101955780637b0a47ee146101c0576100dd565b806313af4035146100e257806316934fc41461010b5780632def662014610149575b600080fd5b3480156100ee57600080fd5b5061010960048036038101906101049190610ce0565b610312565b005b34801561011757600080fd5b50610132600480360381019061012d9190610ce0565b6103e6565b604051610140929190610d26565b60405180910390f35b34801561015557600080fd5b5061015e61040a565b005b34801561016c57600080fd5b506101756106ab565b6040516101829190610dae565b60405180910390f35b6101936106cf565b005b3480156101a157600080fd5b506101aa610898565b6040516101b79190610dc9565b60405180910390f35b3480156101cc57600080fd5b506101d561089e565b6040516101e29190610dc9565b60405180910390f35b3480156101f757600080fd5b506102006108a4565b60405161020d9190610df3565b60405180910390f35b34801561022257600080fd5b5061022b6108ca565b6040516102389190610dc9565b60405180910390f35b34801561024d57600080fd5b5061026860048036038101906102639190610e3a565b6108d1565b005b34801561027657600080fd5b5061027f61096b565b60405161028c9190610dc9565b60405180910390f35b3480156102a157600080fd5b506102aa610971565b005b3480156102b857600080fd5b506102d360048036038101906102ce9190610e3a565b610af8565b005b3480156102e157600080fd5b506102fc60048036038101906102f79190610ce0565b610b92565b6040516103099190610dc9565b60405180910390f35b3373ffffffffffffffffffffffffffffffffffffffff16600460009054906101000a900473ffffffffffffffffffffffffffffffffffffffff1673ffffffffffffffffffffffffffffffffffffffff16146103a2576040517f08c379a000000000000000000000000000000000000000000000000000000000815260040161039990610eea565b60405180910390fd5b80600460006101000a81548173ffffffffffffffffffffffffffffffffffffffff021916908373ffffffffffffffffffffffffffffffffffffffff16021790555050565b60056020528060005260406000206000915090508060000154908060010154905082565b6000600560003373ffffffffffffffffffffffffffffffffffffffff1673ffffffffffffffffffffffffffffffffffffffff16815260200190815260200160002090506000816000015411610494576040517f08c379a000000000000000000000000000000000000000000000000000000000815260040161048b90610f56565b60405180910390fd5b60008160000154905060006104a833610b92565b9050600560003373ffffffffffffffffffffffffffffffffffffffff1673ffffffffffffffffffffffffffffffffffffffff1681526020019081526020016000206000808201600090556001820160009055505060008054906101000a900473ffffffffffffffffffffffffffffffffffffffff1673ffffffffffffffffffffffffffffffffffffffff166323b872dd3330600154866105489190610fa5565b6040518463ffffffff1660e01b815260040161056693929190610fe7565b6020604051808303816000875af1158015610585573d6000803e3d6000fd5b505050506040513d601f19601f820116820180604052508101906105a99190611056565b503373ffffffffffffffffffffffffffffffffffffffff166108fc839081150290604051600060405180830381858888f193505050501580156105f0573d6000803e3d6000fd5b5081600360008282546106039190611083565b925050819055503373ffffffffffffffffffffffffffffffffffffffff167f0f5bb82176feb1b5e747e28471aa92156a04d9f3ab9f45f28e2d704232b93f75836040516106509190610dc9565b60405180910390a23373ffffffffffffffffffffffffffffffffffffffff167f106f923f993c2149d49b4255ff723acafa1f2d94393f561d3eda32ae348f72418260405161069e9190610dc9565b60405180910390a2505050565b60008054906101000a900473ffffffffffffffffffffffffffffffffffffffff1681565b60003411610712576040517f08c379a000000000000000000000000000000000000000000000000000000000815260040161070990611129565b60405180910390fd5b600034905060008054906101000a900473ffffffffffffffffffffffffffffffffffffffff1673ffffffffffffffffffffffffffffffffffffffff1663a9059cbb33600154846107629190610fa5565b6040518363ffffffff1660e01b815260040161077f929190611149565b6020604051808303816000875af115801561079e573d6000803e3d6000fd5b505050506040513d601f19601f820116820180604052508101906107c29190611056565b5080600360008282546107d59190611172565b92505081905550604051806040016040528082815260200142815250600560003373ffffffffffffffffffffffffffffffffffffffff1673ffffffffffffffffffffffffffffffffffffffff16815260200190815260200160002060008201518160000155602082015181600101559050503373ffffffffffffffffffffffffffffffffffffffff167f9e71bc8eea02a63969f509818f2dafb9254532904319f9dbda79b67bd34a5f3d8260405161088d9190610dc9565b60405180910390a250565b60015481565b60025481565b600460009054906101000a900473ffffffffffffffffffffffffffffffffffffffff1681565b62093a8081565b3373ffffffffffffffffffffffffffffffffffffffff16600460009054906101000a900473ffffffffffffffffffffffffffffffffffffffff1673ffffffffffffffffffffffffffffffffffffffff1614610961576040517f08c379a000000000000000000000000000000000000000000000000000000000815260040161095890610eea565b60405180910390fd5b8060028190555050565b60035481565b600061097c33610b92565b9050600081116109c1576040517f08c379a00000000000000000000000000000000000000000000000000000000081526004016109b8906111f2565b60405180910390fd5b42600560003373ffffffffffffffffffffffffffffffffffffffff1673ffffffffffffffffffffffffffffffffffffffff1681526020019081526020016000206001018190555060008054906101000a900473ffffffffffffffffffffffffffffffffffffffff1673ffffffffffffffffffffffffffffffffffffffff1663a9059cbb33836040518363ffffffff1660e01b8152600401610a63929190611149565b6020604051808303816000875af1158015610a82573d6000803e3d6000fd5b505050506040513d601f19601f82011682018060405250810190610aa69190611056565b503373ffffffffffffffffffffffffffffffffffffffff167f106f923f993c2149d49b4255ff723acafa1f2d94393f561d3eda32ae348f724182604051610aed9190610dc9565b60405180910390a250565b3373ffffffffffffffffffffffffffffffffffffffff16600460009054906101000a900473ffffffffffffffffffffffffffffffffffffffff1673ffffffffffffffffffffffffffffffffffffffff1614610b88576040517f08c379a0000000000000000000000000000000000000000000000000000000008152600401610b7f90610eea565b60405180910390fd5b8060018190555050565b600080600560008473ffffffffffffffffffffffffffffffffffffffff1673ffffffffffffffffffffffffffffffffffffffff16815260200190815260200160002090506000816000015411610c1d576040517f08c379a0000000000000000000000000000000000000000000000000000000008152600401610c1490610f56565b60405180910390fd5b6000816001015442610c2f9190611083565b9050600062093a8082600254610c459190610fa5565b610c4f9190611241565b905060006064828560000154610c659190610fa5565b610c6f9190611241565b905080945050505050919050565b600080fd5b600073ffffffffffffffffffffffffffffffffffffffff82169050919050565b6000610cad82610c82565b9050919050565b610cbd81610ca2565b8114610cc857600080fd5b50565b600081359050610cda81610cb4565b92915050565b600060208284031215610cf657610cf5610c7d565b5b6000610d0484828501610ccb565b91505092915050565b6000819050919050565b610d2081610d0d565b82525050565b6000604082019050610d3b6000830185610d17565b610d486020830184610d17565b9392505050565b6000819050919050565b6000610d74610d6f610d6a84610c82565b610d4f565b610c82565b9050919050565b6000610d8682610d59565b9050919050565b6000610d9882610d7b565b9050919050565b610da881610d8d565b82525050565b6000602082019050610dc36000830184610d9f565b92915050565b6000602082019050610dde6000830184610d17565b92915050565b610ded81610ca2565b82525050565b6000602082019050610e086000830184610de4565b92915050565b610e1781610d0d565b8114610e2257600080fd5b50565b600081359050610e3481610e0e565b92915050565b600060208284031215610e5057610e4f610c7d565b5b6000610e5e84828501610e25565b91505092915050565b600082825260208201905092915050565b7f4f6e6c792074686520636f6e7472616374206f776e65722063616e2063616c6c60008201527f20746869732066756e6374696f6e2e0000000000000000000000000000000000602082015250565b6000610ed4602f83610e67565b9150610edf82610e78565b604082019050919050565b60006020820190508181036000830152610f0381610ec7565b9050919050565b7f4e6f207374616b6564204554482e000000000000000000000000000000000000600082015250565b6000610f40600e83610e67565b9150610f4b82610f0a565b602082019050919050565b60006020820190508181036000830152610f6f81610f33565b9050919050565b7f4e487b7100000000000000000000000000000000000000000000000000000000600052601160045260246000fd5b6000610fb082610d0d565b9150610fbb83610d0d565b9250828202610fc981610d0d565b91508282048414831517610fe057610fdf610f76565b5b5092915050565b6000606082019050610ffc6000830186610de4565b6110096020830185610de4565b6110166040830184610d17565b949350505050565b60008115159050919050565b6110338161101e565b811461103e57600080fd5b50565b6000815190506110508161102a565b92915050565b60006020828403121561106c5761106b610c7d565b5b600061107a84828501611041565b91505092915050565b600061108e82610d0d565b915061109983610d0d565b92508282039050818111156110b1576110b0610f76565b5b92915050565b7f416d6f756e74206d7573742062652067726561746572207468616e207a65726f60008201527f2e00000000000000000000000000000000000000000000000000000000000000602082015250565b6000611113602183610e67565b915061111e826110b7565b604082019050919050565b6000602082019050818103600083015261114281611106565b9050919050565b600060408201905061115e6000830185610de4565b61116b6020830184610d17565b9392505050565b600061117d82610d0d565b915061118883610d0d565b92508282019050808211156111a05761119f610f76565b5b92915050565b7f4e6f2072657761726420617661696c61626c652e000000000000000000000000600082015250565b60006111dc601483610e67565b91506111e7826111a6565b602082019050919050565b6000602082019050818103600083015261120b816111cf565b9050919050565b7f4e487b7100000000000000000000000000000000000000000000000000000000600052601260045260246000fd5b600061124c82610d0d565b915061125783610d0d565b92508261126757611266611212565b5b82820490509291505056fea2646970667358221220f07db092680e9949437f46ecb410d8c7a0699011862b3927f2b8c9411bfb616564736f6c63430008180033",
  "linkReferences": {},
  "deployedLinkReferences": {}
}