{
  "_format": "hh-sol-artifact-1",
  "contractName": "StakingContract",
  "sourceName": "contracts/Stake/stake.sol",
  "abi": [
    {
      "inputs": [
        {
          "internalType": "address",
          "name": "_crvToken",
          "type": "address"
        },
        {
          "internalType": "uint256",
          "name": "_rewardRate",
          "type": "uint256"
        }
      ],
      "stateMutability": "nonpayable",
      "type": "constructor"
    },
    {
      "anonymous": false,
      "inputs": [
        {
          "indexed": true,
          "internalType": "address",
          "name": "account",
          "type": "address"
        },
        {
          "indexed": false,
          "internalType": "uint256",
          "name": "amount",
          "type": "uint256"
        }
      ],
      "name": "RewardClaimed",
      "type": "event"
    },
    {
      "anonymous": false,
      "inputs": [
        {
          "indexed": true,
          "internalType": "address",
          "name": "account",
          "type": "address"
        },
        {
          "indexed": false,
          "internalType": "uint256",
          "name": "amount",
          "type": "uint256"
        }
      ],
      "name": "Staked",
      "type": "event"
    },
    {
      "anonymous": false,
      "inputs": [
        {
          "indexed": true,
          "internalType": "address",
          "name": "account",
          "type": "address"
        },
        {
          "indexed": false,
          "internalType": "uint256",
          "name": "amount",
          "type": "uint256"
        }
      ],
      "name": "Unstaked",
      "type": "event"
    },
    {
      "inputs": [],
      "name": "ONE_WEEK",
      "outputs": [
        {
          "internalType": "uint256",
          "name": "",
          "type": "uint256"
        }
      ],
      "stateMutability": "view",
      "type": "function"
    },
    {
      "inputs": [
        {
          "internalType": "address",
          "name": "account",
          "type": "address"
        }
      ],
      "name": "calculateReward",
      "outputs": [
        {
          "internalType": "uint256",
          "name": "",
          "type": "uint256"
        }
      ],
      "stateMutability": "view",
      "type": "function"
    },
    {
      "inputs": [],
      "name": "claimReward",
      "outputs": [],
      "stateMutability": "nonpayable",
      "type": "function"
    },
    {
      "inputs": [],
      "name": "crvToken",
      "outputs": [
        {
          "internalType": "contract IERC20",
          "name": "",
          "type": "address"
        }
      ],
      "stateMutability": "view",
      "type": "function"
    },
    {
      "inputs": [],
      "name": "exchangeRate",
      "outputs": [
        {
          "internalType": "uint256",
          "name": "",
          "type": "uint256"
        }
      ],
      "stateMutability": "view",
      "type": "function"
    },
    {
      "inputs": [],
      "name": "owner",
      "outputs": [
        {
          "internalType": "address",
          "name": "",
          "type": "address"
        }
      ],
      "stateMutability": "view",
      "type": "function"
    },
    {
      "inputs": [],
      "name": "rewardRate",
      "outputs": [
        {
          "internalType": "uint256",
          "name": "",
          "type": "uint256"
        }
      ],
      "stateMutability": "view",
      "type": "function"
    },
    {
      "inputs": [
        {
          "internalType": "address",
          "name": "_owner",
          "type": "address"
        }
      ],
      "name": "setOwner",
      "outputs": [],
      "stateMutability": "nonpayable",
      "type": "function"
    },
    {
      "inputs": [],
      "name": "stake",
      "outputs": [],
      "stateMutability": "payable",
      "type": "function"
    },
    {
      "inputs": [
        {
          "internalType": "address",
          "name": "",
          "type": "address"
        }
      ],
      "name": "stakes",
      "outputs": [
        {
          "internalType": "uint256",
          "name": "amount",
          "type": "uint256"
        },
        {
          "internalType": "uint256",
          "name": "timestamp",
          "type": "uint256"
        }
      ],
      "stateMutability": "view",
      "type": "function"
    },
    {
      "inputs": [],
      "name": "totalStakedETH",
      "outputs": [
        {
          "internalType": "uint256",
          "name": "",
          "type": "uint256"
        }
      ],
      "stateMutability": "view",
      "type": "function"
    },
    {
      "inputs": [],
      "name": "unstake",
      "outputs": [],
      "stateMutability": "nonpayable",
      "type": "function"
    },
    {
      "inputs": [
        {
          "internalType": "uint256",
          "name": "rate",
          "type": "uint256"
        }
      ],
      "name": "updateExchangeRate",
      "outputs": [],
      "stateMutability": "nonpayable",
      "type": "function"
    },
    {
      "inputs": [
        {
          "internalType": "uint256",
          "name": "rate",
          "type": "uint256"
        }
      ],
      "name": "updateRewardRate",
      "outputs": [],
      "stateMutability": "nonpayable",
      "type": "function"
    }
  ],
  "bytecode": "0x60806040523480156200001157600080fd5b506040516200149538038062001495833981810160405281019062000037919062000174565b816000806101000a81548173ffffffffffffffffffffffffffffffffffffffff021916908373ffffffffffffffffffffffffffffffffffffffff160217905550600a6001819055508060028190555033600460006101000a81548173ffffffffffffffffffffffffffffffffffffffff021916908373ffffffffffffffffffffffffffffffffffffffff1602179055505050620001bb565b600080fd5b600073ffffffffffffffffffffffffffffffffffffffff82169050919050565b60006200010182620000d4565b9050919050565b6200011381620000f4565b81146200011f57600080fd5b50565b600081519050620001338162000108565b92915050565b6000819050919050565b6200014e8162000139565b81146200015a57600080fd5b50565b6000815190506200016e8162000143565b92915050565b600080604083850312156200018e576200018d620000cf565b5b60006200019e8582860162000122565b9250506020620001b1858286016200015d565b9150509250929050565b6112ca80620001cb6000396000f3fe6080604052600436106100dd5760003560e01c80638da5cb5b1161007f578063ad73bfd511610059578063ad73bfd51461026a578063b88a802f14610295578063b9e205ae146102ac578063d82e3962146102d5576100dd565b80638da5cb5b146101eb5780638e6f6b77146102165780639ef3a26114610241576100dd565b806332d7d66d116100bb57806332d7d66d146101605780633a4b66f11461018b5780633ba0b9a9146101955780637b0a47ee146101c0576100dd565b806313af4035146100e257806316934fc41461010b5780632def662014610149575b600080fd5b3480156100ee57600080fd5b5061010960048036038101906101049190610d02565b610312565b005b34801561011757600080fd5b50610132600480360381019061012d9190610d02565b6103e6565b604051610140929190610d48565b60405180910390f35b34801561015557600080fd5b5061015e61040a565b005b34801561016c57600080fd5b506101756106cd565b6040516101829190610dd0565b60405180910390f35b6101936106f1565b005b3480156101a157600080fd5b506101aa6108ba565b6040516101b79190610deb565b60405180910390f35b3480156101cc57600080fd5b506101d56108c0565b6040516101e29190610deb565b60405180910390f35b3480156101f757600080fd5b506102006108c6565b60405161020d9190610e15565b60405180910390f35b34801561022257600080fd5b5061022b6108ec565b6040516102389190610deb565b60405180910390f35b34801561024d57600080fd5b5061026860048036038101906102639190610e5c565b6108f3565b005b34801561027657600080fd5b5061027f61098d565b60405161028c9190610deb565b60405180910390f35b3480156102a157600080fd5b506102aa610993565b005b3480156102b857600080fd5b506102d360048036038101906102ce9190610e5c565b610b1a565b005b3480156102e157600080fd5b506102fc60048036038101906102f79190610d02565b610bb4565b6040516103099190610deb565b60405180910390f35b3373ffffffffffffffffffffffffffffffffffffffff16600460009054906101000a900473ffffffffffffffffffffffffffffffffffffffff1673ffffffffffffffffffffffffffffffffffffffff16146103a2576040517f08c379a000000000000000000000000000000000000000000000000000000000815260040161039990610f0c565b60405180910390fd5b80600460006101000a81548173ffffffffffffffffffffffffffffffffffffffff021916908373ffffffffffffffffffffffffffffffffffffffff16021790555050565b60056020528060005260406000206000915090508060000154908060010154905082565b6000600560003373ffffffffffffffffffffffffffffffffffffffff1673ffffffffffffffffffffffffffffffffffffffff16815260200190815260200160002090506000816000015411610494576040517f08c379a000000000000000000000000000000000000000000000000000000000815260040161048b90610f78565b60405180910390fd5b60008160000154905060006104a833610bb4565b9050600560003373ffffffffffffffffffffffffffffffffffffffff1673ffffffffffffffffffffffffffffffffffffffff1681526020019081526020016000206000808201600090556001820160009055505060008054906101000a900473ffffffffffffffffffffffffffffffffffffffff1673ffffffffffffffffffffffffffffffffffffffff166323b872dd600460009054906101000a900473ffffffffffffffffffffffffffffffffffffffff16306001548661056a9190610fc7565b6040518463ffffffff1660e01b815260040161058893929190611009565b6020604051808303816000875af11580156105a7573d6000803e3d6000fd5b505050506040513d601f19601f820116820180604052508101906105cb9190611078565b503373ffffffffffffffffffffffffffffffffffffffff166108fc839081150290604051600060405180830381858888f19350505050158015610612573d6000803e3d6000fd5b50816003600082825461062591906110a5565b925050819055503373ffffffffffffffffffffffffffffffffffffffff167f0f5bb82176feb1b5e747e28471aa92156a04d9f3ab9f45f28e2d704232b93f75836040516106729190610deb565b60405180910390a23373ffffffffffffffffffffffffffffffffffffffff167f106f923f993c2149d49b4255ff723acafa1f2d94393f561d3eda32ae348f7241826040516106c09190610deb565b60405180910390a2505050565b60008054906101000a900473ffffffffffffffffffffffffffffffffffffffff1681565b60003411610734576040517f08c379a000000000000000000000000000000000000000000000000000000000815260040161072b9061114b565b60405180910390fd5b600034905060008054906101000a900473ffffffffffffffffffffffffffffffffffffffff1673ffffffffffffffffffffffffffffffffffffffff1663a9059cbb33600154846107849190610fc7565b6040518363ffffffff1660e01b81526004016107a192919061116b565b6020604051808303816000875af11580156107c0573d6000803e3d6000fd5b505050506040513d601f19601f820116820180604052508101906107e49190611078565b5080600360008282546107f79190611194565b92505081905550604051806040016040528082815260200142815250600560003373ffffffffffffffffffffffffffffffffffffffff1673ffffffffffffffffffffffffffffffffffffffff16815260200190815260200160002060008201518160000155602082015181600101559050503373ffffffffffffffffffffffffffffffffffffffff167f9e71bc8eea02a63969f509818f2dafb9254532904319f9dbda79b67bd34a5f3d826040516108af9190610deb565b60405180910390a250565b60015481565b60025481565b600460009054906101000a900473ffffffffffffffffffffffffffffffffffffffff1681565b62093a8081565b3373ffffffffffffffffffffffffffffffffffffffff16600460009054906101000a900473ffffffffffffffffffffffffffffffffffffffff1673ffffffffffffffffffffffffffffffffffffffff1614610983576040517f08c379a000000000000000000000000000000000000000000000000000000000815260040161097a90610f0c565b60405180910390fd5b8060028190555050565b60035481565b600061099e33610bb4565b9050600081116109e3576040517f08c379a00000000000000000000000000000000000000000000000000000000081526004016109da90611214565b60405180910390fd5b42600560003373ffffffffffffffffffffffffffffffffffffffff1673ffffffffffffffffffffffffffffffffffffffff1681526020019081526020016000206001018190555060008054906101000a900473ffffffffffffffffffffffffffffffffffffffff1673ffffffffffffffffffffffffffffffffffffffff1663a9059cbb33836040518363ffffffff1660e01b8152600401610a8592919061116b565b6020604051808303816000875af1158015610aa4573d6000803e3d6000fd5b505050506040513d601f19601f82011682018060405250810190610ac89190611078565b503373ffffffffffffffffffffffffffffffffffffffff167f106f923f993c2149d49b4255ff723acafa1f2d94393f561d3eda32ae348f724182604051610b0f9190610deb565b60405180910390a250565b3373ffffffffffffffffffffffffffffffffffffffff16600460009054906101000a900473ffffffffffffffffffffffffffffffffffffffff1673ffffffffffffffffffffffffffffffffffffffff1614610baa576040517f08c379a0000000000000000000000000000000000000000000000000000000008152600401610ba190610f0c565b60405180910390fd5b8060018190555050565b600080600560008473ffffffffffffffffffffffffffffffffffffffff1673ffffffffffffffffffffffffffffffffffffffff16815260200190815260200160002090506000816000015411610c3f576040517f08c379a0000000000000000000000000000000000000000000000000000000008152600401610c3690610f78565b60405180910390fd5b6000816001015442610c5191906110a5565b9050600062093a8082600254610c679190610fc7565b610c719190611263565b905060006064828560000154610c879190610fc7565b610c919190611263565b905080945050505050919050565b600080fd5b600073ffffffffffffffffffffffffffffffffffffffff82169050919050565b6000610ccf82610ca4565b9050919050565b610cdf81610cc4565b8114610cea57600080fd5b50565b600081359050610cfc81610cd6565b92915050565b600060208284031215610d1857610d17610c9f565b5b6000610d2684828501610ced565b91505092915050565b6000819050919050565b610d4281610d2f565b82525050565b6000604082019050610d5d6000830185610d39565b610d6a6020830184610d39565b9392505050565b6000819050919050565b6000610d96610d91610d8c84610ca4565b610d71565b610ca4565b9050919050565b6000610da882610d7b565b9050919050565b6000610dba82610d9d565b9050919050565b610dca81610daf565b82525050565b6000602082019050610de56000830184610dc1565b92915050565b6000602082019050610e006000830184610d39565b92915050565b610e0f81610cc4565b82525050565b6000602082019050610e2a6000830184610e06565b92915050565b610e3981610d2f565b8114610e4457600080fd5b50565b600081359050610e5681610e30565b92915050565b600060208284031215610e7257610e71610c9f565b5b6000610e8084828501610e47565b91505092915050565b600082825260208201905092915050565b7f4f6e6c792074686520636f6e7472616374206f776e65722063616e2063616c6c60008201527f20746869732066756e6374696f6e2e0000000000000000000000000000000000602082015250565b6000610ef6602f83610e89565b9150610f0182610e9a565b604082019050919050565b60006020820190508181036000830152610f2581610ee9565b9050919050565b7f4e6f207374616b6564204554482e000000000000000000000000000000000000600082015250565b6000610f62600e83610e89565b9150610f6d82610f2c565b602082019050919050565b60006020820190508181036000830152610f9181610f55565b9050919050565b7f4e487b7100000000000000000000000000000000000000000000000000000000600052601160045260246000fd5b6000610fd282610d2f565b9150610fdd83610d2f565b9250828202610feb81610d2f565b9150828204841483151761100257611001610f98565b5b5092915050565b600060608201905061101e6000830186610e06565b61102b6020830185610e06565b6110386040830184610d39565b949350505050565b60008115159050919050565b61105581611040565b811461106057600080fd5b50565b6000815190506110728161104c565b92915050565b60006020828403121561108e5761108d610c9f565b5b600061109c84828501611063565b91505092915050565b60006110b082610d2f565b91506110bb83610d2f565b92508282039050818111156110d3576110d2610f98565b5b92915050565b7f416d6f756e74206d7573742062652067726561746572207468616e207a65726f60008201527f2e00000000000000000000000000000000000000000000000000000000000000602082015250565b6000611135602183610e89565b9150611140826110d9565b604082019050919050565b6000602082019050818103600083015261116481611128565b9050919050565b60006040820190506111806000830185610e06565b61118d6020830184610d39565b9392505050565b600061119f82610d2f565b91506111aa83610d2f565b92508282019050808211156111c2576111c1610f98565b5b92915050565b7f4e6f2072657761726420617661696c61626c652e000000000000000000000000600082015250565b60006111fe601483610e89565b9150611209826111c8565b602082019050919050565b6000602082019050818103600083015261122d816111f1565b9050919050565b7f4e487b7100000000000000000000000000000000000000000000000000000000600052601260045260246000fd5b600061126e82610d2f565b915061127983610d2f565b92508261128957611288611234565b5b82820490509291505056fea2646970667358221220b461a5b1ece82f38d9a6cbd55ac3b2f93af8bed805ff5faa2fdc8de6038cf67464736f6c63430008180033",
  "linkReferences": {},
  "deployedLinkReferences": {}
}